{
  "contractName": "Funder",
  "abi": [
    {
      "inputs": [],
      "stateMutability": "nonpayable",
      "type": "constructor"
    },
    {
      "inputs": [],
      "name": "cont",
      "outputs": [
        {
          "internalType": "uint256",
          "name": "",
          "type": "uint256"
        }
      ],
      "stateMutability": "view",
      "type": "function",
      "constant": true
    },
    {
      "inputs": [],
      "name": "extra",
      "outputs": [
        {
          "internalType": "uint256",
          "name": "",
          "type": "uint256"
        }
      ],
      "stateMutability": "view",
      "type": "function",
      "constant": true
    },
    {
      "inputs": [],
      "name": "manager",
      "outputs": [
        {
          "internalType": "address",
          "name": "",
          "type": "address"
        }
      ],
      "stateMutability": "view",
      "type": "function",
      "constant": true
    },
    {
      "inputs": [],
      "name": "numRequests",
      "outputs": [
        {
          "internalType": "uint256",
          "name": "",
          "type": "uint256"
        }
      ],
      "stateMutability": "view",
      "type": "function",
      "constant": true
    },
    {
      "inputs": [
        {
          "internalType": "uint256",
          "name": "",
          "type": "uint256"
        }
      ],
      "name": "requests",
      "outputs": [
        {
          "internalType": "uint256",
          "name": "id",
          "type": "uint256"
        },
        {
          "internalType": "string",
          "name": "img_hash",
          "type": "string"
        },
        {
          "internalType": "string",
          "name": "file_hash",
          "type": "string"
        },
        {
          "internalType": "string",
          "name": "category",
          "type": "string"
        },
        {
          "internalType": "string",
          "name": "description",
          "type": "string"
        },
        {
          "internalType": "address payable",
          "name": "recipient",
          "type": "address"
        },
        {
          "internalType": "uint256",
          "name": "deadline",
          "type": "uint256"
        },
        {
          "internalType": "uint256",
          "name": "target",
          "type": "uint256"
        },
        {
          "internalType": "uint256",
          "name": "raisedAmount",
          "type": "uint256"
        },
        {
          "internalType": "bool",
          "name": "completed",
          "type": "bool"
        },
        {
          "internalType": "uint256",
          "name": "noOfDonors",
          "type": "uint256"
        },
        {
          "internalType": "uint256",
          "name": "approved",
          "type": "uint256"
        }
      ],
      "stateMutability": "view",
      "type": "function",
      "constant": true
    },
    {
      "stateMutability": "payable",
      "type": "receive",
      "payable": true
    },
    {
      "inputs": [
        {
          "internalType": "uint256",
          "name": "i",
          "type": "uint256"
        }
      ],
      "name": "sendEth",
      "outputs": [
        {
          "internalType": "bool",
          "name": "",
          "type": "bool"
        }
      ],
      "stateMutability": "payable",
      "type": "function",
      "payable": true
    },
    {
      "inputs": [],
      "name": "getContractBalance",
      "outputs": [
        {
          "internalType": "uint256",
          "name": "",
          "type": "uint256"
        }
      ],
      "stateMutability": "view",
      "type": "function",
      "constant": true
    },
    {
      "inputs": [
        {
          "internalType": "string",
          "name": "cate",
          "type": "string"
        },
        {
          "internalType": "string",
          "name": "_description",
          "type": "string"
        },
        {
          "internalType": "string",
          "name": "imghash",
          "type": "string"
        },
        {
          "internalType": "string",
          "name": "filehash",
          "type": "string"
        },
        {
          "internalType": "address payable",
          "name": "_recipient",
          "type": "address"
        },
        {
          "internalType": "uint256",
          "name": "_time",
          "type": "uint256"
        },
        {
          "internalType": "uint256",
          "name": "_target",
          "type": "uint256"
        }
      ],
      "name": "createRequests",
      "outputs": [],
      "stateMutability": "nonpayable",
      "type": "function"
    },
    {
      "inputs": [],
      "name": "seemyrequests",
      "outputs": [
        {
          "components": [
            {
              "internalType": "uint256",
              "name": "id",
              "type": "uint256"
            },
            {
              "internalType": "string",
              "name": "img_hash",
              "type": "string"
            },
            {
              "internalType": "string",
              "name": "file_hash",
              "type": "string"
            },
            {
              "internalType": "string",
              "name": "category",
              "type": "string"
            },
            {
              "internalType": "string",
              "name": "description",
              "type": "string"
            },
            {
              "internalType": "address payable",
              "name": "recipient",
              "type": "address"
            },
            {
              "internalType": "uint256",
              "name": "deadline",
              "type": "uint256"
            },
            {
              "internalType": "uint256",
              "name": "target",
              "type": "uint256"
            },
            {
              "internalType": "uint256",
              "name": "raisedAmount",
              "type": "uint256"
            },
            {
              "internalType": "bool",
              "name": "completed",
              "type": "bool"
            },
            {
              "internalType": "uint256",
              "name": "noOfDonors",
              "type": "uint256"
            },
            {
              "internalType": "uint256",
              "name": "approved",
              "type": "uint256"
            }
          ],
          "internalType": "struct Funder.Request[]",
          "name": "",
          "type": "tuple[]"
        }
      ],
      "stateMutability": "view",
      "type": "function",
      "constant": true
    },
    {
      "inputs": [
        {
          "internalType": "uint256",
          "name": "k",
          "type": "uint256"
        }
      ],
      "name": "refundback",
      "outputs": [],
      "stateMutability": "nonpayable",
      "type": "function"
    },
    {
      "inputs": [
        {
          "internalType": "uint256",
          "name": "id",
          "type": "uint256"
        },
        {
          "internalType": "uint256",
          "name": "a",
          "type": "uint256"
        }
      ],
      "name": "isApproved",
      "outputs": [],
      "stateMutability": "nonpayable",
      "type": "function"
    },
    {
      "inputs": [
        {
          "internalType": "uint256",
          "name": "id",
          "type": "uint256"
        }
      ],
      "name": "getRequest",
      "outputs": [
        {
          "components": [
            {
              "internalType": "uint256",
              "name": "id",
              "type": "uint256"
            },
            {
              "internalType": "string",
              "name": "img_hash",
              "type": "string"
            },
            {
              "internalType": "string",
              "name": "file_hash",
              "type": "string"
            },
            {
              "internalType": "string",
              "name": "category",
              "type": "string"
            },
            {
              "internalType": "string",
              "name": "description",
              "type": "string"
            },
            {
              "internalType": "address payable",
              "name": "recipient",
              "type": "address"
            },
            {
              "internalType": "uint256",
              "name": "deadline",
              "type": "uint256"
            },
            {
              "internalType": "uint256",
              "name": "target",
              "type": "uint256"
            },
            {
              "internalType": "uint256",
              "name": "raisedAmount",
              "type": "uint256"
            },
            {
              "internalType": "bool",
              "name": "completed",
              "type": "bool"
            },
            {
              "internalType": "uint256",
              "name": "noOfDonors",
              "type": "uint256"
            },
            {
              "internalType": "uint256",
              "name": "approved",
              "type": "uint256"
            }
          ],
          "internalType": "struct Funder.Request",
          "name": "",
          "type": "tuple"
        }
      ],
      "stateMutability": "view",
      "type": "function",
      "constant": true
    },
    {
      "inputs": [],
      "name": "getBid",
      "outputs": [
        {
          "components": [
            {
              "internalType": "uint256",
              "name": "id",
              "type": "uint256"
            },
            {
              "internalType": "string",
              "name": "img_hash",
              "type": "string"
            },
            {
              "internalType": "string",
              "name": "file_hash",
              "type": "string"
            },
            {
              "internalType": "string",
              "name": "category",
              "type": "string"
            },
            {
              "internalType": "string",
              "name": "description",
              "type": "string"
            },
            {
              "internalType": "address payable",
              "name": "recipient",
              "type": "address"
            },
            {
              "internalType": "uint256",
              "name": "deadline",
              "type": "uint256"
            },
            {
              "internalType": "uint256",
              "name": "target",
              "type": "uint256"
            },
            {
              "internalType": "uint256",
              "name": "raisedAmount",
              "type": "uint256"
            },
            {
              "internalType": "bool",
              "name": "completed",
              "type": "bool"
            },
            {
              "internalType": "uint256",
              "name": "noOfDonors",
              "type": "uint256"
            },
            {
              "internalType": "uint256",
              "name": "approved",
              "type": "uint256"
            }
          ],
          "internalType": "struct Funder.Request[]",
          "name": "",
          "type": "tuple[]"
        }
      ],
      "stateMutability": "view",
      "type": "function",
      "constant": true
    },
    {
      "inputs": [],
      "name": "getmanager",
      "outputs": [
        {
          "internalType": "address",
          "name": "",
          "type": "address"
        }
      ],
      "stateMutability": "view",
      "type": "function",
      "constant": true
    },
    {
      "inputs": [],
      "name": "getRequestNo",
      "outputs": [
        {
          "internalType": "uint256",
          "name": "",
          "type": "uint256"
        }
      ],
      "stateMutability": "view",
      "type": "function",
      "constant": true
    },
    {
      "inputs": [
        {
          "internalType": "uint256",
          "name": "i",
          "type": "uint256"
        }
      ],
      "name": "makePayment",
      "outputs": [],
      "stateMutability": "payable",
      "type": "function",
      "payable": true
    },
    {
      "inputs": [],
      "name": "contri",
      "outputs": [
        {
          "internalType": "uint256",
          "name": "",
          "type": "uint256"
        }
      ],
      "stateMutability": "view",
      "type": "function",
      "constant": true
    }
  ],
  "bytecode": "0x608060405234801561001057600080fd5b5033600360006101000a81548173ffffffffffffffffffffffffffffffffffffffff021916908373ffffffffffffffffffffffffffffffffffffffff160217905550612dcf806100616000396000f3fe6080604052600436106101025760003560e01c80636f9fb98a116100955780639fb42b1f116100645780639fb42b1f1461031c578063bf27651114610347578063c58343ef14610370578063cfc54848146103ad578063f52294c3146103dd57610109565b80636f9fb98a1461025557806377bd616c1461028057806381d12c58146102ab578063921ca49b146102f357610109565b8063481c6a75116100d1578063481c6a75146101b85780635114cb52146101e3578063588965e5146101ff5780636582b6511461022a57610109565b8063079ce1ab1461010e578063099a019d14610139578063190024e0146101645780632fa9158a1461018f57610109565b3661010957005b600080fd5b34801561011a57600080fd5b50610123610408565b6040516101309190611f27565b60405180910390f35b34801561014557600080fd5b5061014e61040e565b60405161015b9190612221565b60405180910390f35b34801561017057600080fd5b506101796107ca565b6040516101869190611f27565b60405180910390f35b34801561019b57600080fd5b506101b660048036038101906101b191906123e4565b6107d0565b005b3480156101c457600080fd5b506101cd610972565b6040516101da9190612517565b60405180910390f35b6101fd60048036038101906101f89190612532565b610998565b005b34801561020b57600080fd5b50610214610ba4565b6040516102219190611f27565b60405180910390f35b34801561023657600080fd5b5061023f610beb565b60405161024c9190611f27565b60405180910390f35b34801561026157600080fd5b5061026a610bf5565b6040516102779190611f27565b60405180910390f35b34801561028c57600080fd5b50610295610bfd565b6040516102a29190612221565b60405180910390f35b3480156102b757600080fd5b506102d260048036038101906102cd9190612532565b611094565b6040516102ea9c9b9a999897969594939291906125c7565b60405180910390f35b3480156102ff57600080fd5b5061031a60048036038101906103159190612532565b611341565b005b34801561032857600080fd5b50610331611632565b60405161033e9190611f27565b60405180910390f35b34801561035357600080fd5b5061036e6004803603810190610369919061269d565b611638565b005b34801561037c57600080fd5b5061039760048036038101906103929190612532565b6116e7565b6040516103a491906127f6565b60405180910390f35b6103c760048036038101906103c29190612532565b611a10565b6040516103d49190612818565b60405180910390f35b3480156103e957600080fd5b506103f2611dc8565b6040516103ff9190612517565b60405180910390f35b60025481565b6060600060085467ffffffffffffffff81111561042e5761042d612261565b5b60405190808252806020026020018201604052801561046757816020015b610454611df2565b81526020019060019003908161044c5790505b50905060005b6008548110156107c25760006007600083815260200190815260200160002090508060405180610180016040529081600082015481526020016001820180546104b590612862565b80601f01602080910402602001604051908101604052809291908181526020018280546104e190612862565b801561052e5780601f106105035761010080835404028352916020019161052e565b820191906000526020600020905b81548152906001019060200180831161051157829003601f168201915b5050505050815260200160028201805461054790612862565b80601f016020809104026020016040519081016040528092919081815260200182805461057390612862565b80156105c05780601f10610595576101008083540402835291602001916105c0565b820191906000526020600020905b8154815290600101906020018083116105a357829003601f168201915b505050505081526020016003820180546105d990612862565b80601f016020809104026020016040519081016040528092919081815260200182805461060590612862565b80156106525780601f1061062757610100808354040283529160200191610652565b820191906000526020600020905b81548152906001019060200180831161063557829003601f168201915b5050505050815260200160048201805461066b90612862565b80601f016020809104026020016040519081016040528092919081815260200182805461069790612862565b80156106e45780601f106106b9576101008083540402835291602001916106e4565b820191906000526020600020905b8154815290600101906020018083116106c757829003601f168201915b505050505081526020016005820160009054906101000a900473ffffffffffffffffffffffffffffffffffffffff1673ffffffffffffffffffffffffffffffffffffffff1673ffffffffffffffffffffffffffffffffffffffff1681526020016006820154815260200160078201548152602001600882015481526020016009820160009054906101000a900460ff16151515158152602001600a8201548152602001600b820154815250508383815181106107a3576107a2612894565b5b60200260200101819052505080806107ba906128f2565b91505061046d565b508091505090565b60045481565b6000600760006008548152602001908152602001600020905060085481600001819055508781600301908051906020019061080c929190611e6b565b5085816001019080519060200190610825929190611e6b565b508481600201908051906020019061083e929190611e6b565b5086816004019080519060200190610857929190611e6b565b50838160050160006101000a81548173ffffffffffffffffffffffffffffffffffffffff021916908373ffffffffffffffffffffffffffffffffffffffff1602179055508281600601819055508181600701819055506000816008018190555060008160090160006101000a81548160ff021916908315150217905550600081600b0181905550600081600a0181905550600660003373ffffffffffffffffffffffffffffffffffffffff1673ffffffffffffffffffffffffffffffffffffffff168152602001908152602001600020600854908060018154018082558091505060019003906000526020600020016000909190919091505560086000815480929190610963906128f2565b91905055505050505050505050565b600360009054906101000a900473ffffffffffffffffffffffffffffffffffffffff1681565b600060076000838152602001908152602001600020905042816006015410156109f6576040517f08c379a00000000000000000000000000000000000000000000000000000000081526004016109ed90612987565b60405180910390fd5b600760008381526020019081526020016000206007015481600801541015610a53576040517f08c379a0000000000000000000000000000000000000000000000000000000008152600401610a4a906129f3565b60405180910390fd5b600181600b015414610a9a576040517f08c379a0000000000000000000000000000000000000000000000000000000008152600401610a9190612a5f565b60405180910390fd5b600015158160090160009054906101000a900460ff16151514610af2576040517f08c379a0000000000000000000000000000000000000000000000000000000008152600401610ae990612acb565b60405180910390fd5b8060050160009054906101000a900473ffffffffffffffffffffffffffffffffffffffff1673ffffffffffffffffffffffffffffffffffffffff166108fc606460638460080154610b439190612aeb565b610b4d9190612b74565b9081150290604051600060405180830381858888f19350505050158015610b78573d6000803e3d6000fd5b5060018160090160006101000a81548160ff021916908315150217905550600181600b01819055505050565b6000600160003373ffffffffffffffffffffffffffffffffffffffff1673ffffffffffffffffffffffffffffffffffffffff16815260200190815260200160002054905090565b6000600854905090565b600047905090565b60606000600660003373ffffffffffffffffffffffffffffffffffffffff1673ffffffffffffffffffffffffffffffffffffffff1681526020019081526020016000208054905067ffffffffffffffff811115610c5d57610c5c612261565b5b604051908082528060200260200182016040528015610c9657816020015b610c83611df2565b815260200190600190039081610c7b5790505b50905060005b600660003373ffffffffffffffffffffffffffffffffffffffff1673ffffffffffffffffffffffffffffffffffffffff1681526020019081526020016000208054905081101561108c57600060076000600660003373ffffffffffffffffffffffffffffffffffffffff1673ffffffffffffffffffffffffffffffffffffffff1681526020019081526020016000208481548110610d3d57610d3c612894565b5b906000526020600020015481526020019081526020016000209050806040518061018001604052908160008201548152602001600182018054610d7f90612862565b80601f0160208091040260200160405190810160405280929190818152602001828054610dab90612862565b8015610df85780601f10610dcd57610100808354040283529160200191610df8565b820191906000526020600020905b815481529060010190602001808311610ddb57829003601f168201915b50505050508152602001600282018054610e1190612862565b80601f0160208091040260200160405190810160405280929190818152602001828054610e3d90612862565b8015610e8a5780601f10610e5f57610100808354040283529160200191610e8a565b820191906000526020600020905b815481529060010190602001808311610e6d57829003601f168201915b50505050508152602001600382018054610ea390612862565b80601f0160208091040260200160405190810160405280929190818152602001828054610ecf90612862565b8015610f1c5780601f10610ef157610100808354040283529160200191610f1c565b820191906000526020600020905b815481529060010190602001808311610eff57829003601f168201915b50505050508152602001600482018054610f3590612862565b80601f0160208091040260200160405190810160405280929190818152602001828054610f6190612862565b8015610fae5780601f10610f8357610100808354040283529160200191610fae565b820191906000526020600020905b815481529060010190602001808311610f9157829003601f168201915b505050505081526020016005820160009054906101000a900473ffffffffffffffffffffffffffffffffffffffff1673ffffffffffffffffffffffffffffffffffffffff1673ffffffffffffffffffffffffffffffffffffffff1681526020016006820154815260200160078201548152602001600882015481526020016009820160009054906101000a900460ff16151515158152602001600a8201548152602001600b8201548152505083838151811061106d5761106c612894565b5b6020026020010181905250508080611084906128f2565b915050610c9c565b508091505090565b60076020528060005260406000206000915090508060000154908060010180546110bd90612862565b80601f01602080910402602001604051908101604052809291908181526020018280546110e990612862565b80156111365780601f1061110b57610100808354040283529160200191611136565b820191906000526020600020905b81548152906001019060200180831161111957829003601f168201915b50505050509080600201805461114b90612862565b80601f016020809104026020016040519081016040528092919081815260200182805461117790612862565b80156111c45780601f10611199576101008083540402835291602001916111c4565b820191906000526020600020905b8154815290600101906020018083116111a757829003601f168201915b5050505050908060030180546111d990612862565b80601f016020809104026020016040519081016040528092919081815260200182805461120590612862565b80156112525780601f1061122757610100808354040283529160200191611252565b820191906000526020600020905b81548152906001019060200180831161123557829003601f168201915b50505050509080600401805461126790612862565b80601f016020809104026020016040519081016040528092919081815260200182805461129390612862565b80156112e05780601f106112b5576101008083540402835291602001916112e0565b820191906000526020600020905b8154815290600101906020018083116112c357829003601f168201915b5050505050908060050160009054906101000a900473ffffffffffffffffffffffffffffffffffffffff16908060060154908060070154908060080154908060090160009054906101000a900460ff169080600a01549080600b015490508c565b600360009054906101000a900473ffffffffffffffffffffffffffffffffffffffff1673ffffffffffffffffffffffffffffffffffffffff163373ffffffffffffffffffffffffffffffffffffffff16146113d1576040517f08c379a00000000000000000000000000000000000000000000000000000000081526004016113c890612c17565b60405180910390fd5b6000808190505b600560008481526020019081526020016000208054905081101561162d576007600083815260200190815260200160002060060154421161144e576040517f08c379a000000000000000000000000000000000000000000000000000000000815260040161144590612c83565b60405180910390fd5b60076000838152602001908152602001600020600701546007600084815260200190815260200160002060080154106114bc576040517f08c379a00000000000000000000000000000000000000000000000000000000081526004016114b390612cef565b60405180910390fd5b6005600084815260200190815260200160002081815481106114e1576114e0612894565b5b906000526020600020906003020160000160009054906101000a900473ffffffffffffffffffffffffffffffffffffffff1673ffffffffffffffffffffffffffffffffffffffff166108fc60056000868152602001908152602001600020838154811061155157611550612894565b5b9060005260206000209060030201600101549081150290604051600060405180830381858888f1935050505015801561158e573d6000803e3d6000fd5b5060006005600085815260200190815260200160002082815481106115b6576115b5612894565b5b90600052602060002090600302016001018190555060016005600085815260200190815260200160002082815481106115f2576115f1612894565b5b906000526020600020906003020160020160006101000a81548160ff0219169083151502179055508080611625906128f2565b9150506113d8565b505050565b60085481565b600360009054906101000a900473ffffffffffffffffffffffffffffffffffffffff1673ffffffffffffffffffffffffffffffffffffffff163373ffffffffffffffffffffffffffffffffffffffff16146116c8576040517f08c379a00000000000000000000000000000000000000000000000000000000081526004016116bf90612c17565b60405180910390fd5b8060076000848152602001908152602001600020600b01819055505050565b6116ef611df2565b600060076000848152602001908152602001600020905080604051806101800160405290816000820154815260200160018201805461172d90612862565b80601f016020809104026020016040519081016040528092919081815260200182805461175990612862565b80156117a65780601f1061177b576101008083540402835291602001916117a6565b820191906000526020600020905b81548152906001019060200180831161178957829003601f168201915b505050505081526020016002820180546117bf90612862565b80601f01602080910402602001604051908101604052809291908181526020018280546117eb90612862565b80156118385780601f1061180d57610100808354040283529160200191611838565b820191906000526020600020905b81548152906001019060200180831161181b57829003601f168201915b5050505050815260200160038201805461185190612862565b80601f016020809104026020016040519081016040528092919081815260200182805461187d90612862565b80156118ca5780601f1061189f576101008083540402835291602001916118ca565b820191906000526020600020905b8154815290600101906020018083116118ad57829003601f168201915b505050505081526020016004820180546118e390612862565b80601f016020809104026020016040519081016040528092919081815260200182805461190f90612862565b801561195c5780601f106119315761010080835404028352916020019161195c565b820191906000526020600020905b81548152906001019060200180831161193f57829003601f168201915b505050505081526020016005820160009054906101000a900473ffffffffffffffffffffffffffffffffffffffff1673ffffffffffffffffffffffffffffffffffffffff1673ffffffffffffffffffffffffffffffffffffffff1681526020016006820154815260200160078201548152602001600882015481526020016009820160009054906101000a900460ff16151515158152602001600a8201548152602001600b82015481525050915050919050565b600060076000838152602001908152602001600020600601544210611a6a576040517f08c379a0000000000000000000000000000000000000000000000000000000008152600401611a6190612c83565b60405180910390fd5b6007600083815260200190815260200160002060070154600760008481526020019081526020016000206008015410611ad8576040517f08c379a0000000000000000000000000000000000000000000000000000000008152600401611acf90612cef565b60405180910390fd5b60076000838152602001908152602001600020600a016000815480929190611aff906128f2565b9190505550600015156000803373ffffffffffffffffffffffffffffffffffffffff1673ffffffffffffffffffffffffffffffffffffffff16815260200190815260200160002060009054906101000a900460ff1615151415611bcc5760016000803373ffffffffffffffffffffffffffffffffffffffff1673ffffffffffffffffffffffffffffffffffffffff16815260200190815260200160002060006101000a81548160ff02191690831515021790555060026000815480929190611bc6906128f2565b91905055505b6005600083815260200190815260200160002060405180606001604052803373ffffffffffffffffffffffffffffffffffffffff16815260200134815260200160001515815250908060018154018082558091505060019003906000526020600020906003020160009091909190915060008201518160000160006101000a81548173ffffffffffffffffffffffffffffffffffffffff021916908373ffffffffffffffffffffffffffffffffffffffff1602179055506020820151816001015560408201518160020160006101000a81548160ff021916908315150217905550505034600760008481526020019081526020016000206008016000828254611cd59190612d0f565b9250508190555034600160003373ffffffffffffffffffffffffffffffffffffffff1673ffffffffffffffffffffffffffffffffffffffff1681526020019081526020016000206000828254611d2b9190612d0f565b925050819055506007600083815260200190815260200160002060070154600760008481526020019081526020016000206008015410611dbf5760076000838152602001908152602001600020600701546007600084815260200190815260200160002060080154611d9d9190612d65565b60046000828254611dae9190612d0f565b92505081905550611dbe82610998565b5b60019050919050565b6000600360009054906101000a900473ffffffffffffffffffffffffffffffffffffffff16905090565b6040518061018001604052806000815260200160608152602001606081526020016060815260200160608152602001600073ffffffffffffffffffffffffffffffffffffffff16815260200160008152602001600081526020016000815260200160001515815260200160008152602001600081525090565b828054611e7790612862565b90600052602060002090601f016020900481019282611e995760008555611ee0565b82601f10611eb257805160ff1916838001178555611ee0565b82800160010185558215611ee0579182015b82811115611edf578251825591602001919060010190611ec4565b5b509050611eed9190611ef1565b5090565b5b80821115611f0a576000816000905550600101611ef2565b5090565b6000819050919050565b611f2181611f0e565b82525050565b6000602082019050611f3c6000830184611f18565b92915050565b600081519050919050565b600082825260208201905092915050565b6000819050602082019050919050565b611f7781611f0e565b82525050565b600081519050919050565b600082825260208201905092915050565b60005b83811015611fb7578082015181840152602081019050611f9c565b83811115611fc6576000848401525b50505050565b6000601f19601f8301169050919050565b6000611fe882611f7d565b611ff28185611f88565b9350612002818560208601611f99565b61200b81611fcc565b840191505092915050565b600073ffffffffffffffffffffffffffffffffffffffff82169050919050565b600061204182612016565b9050919050565b61205181612036565b82525050565b60008115159050919050565b61206c81612057565b82525050565b60006101808301600083015161208b6000860182611f6e565b50602083015184820360208601526120a38282611fdd565b915050604083015184820360408601526120bd8282611fdd565b915050606083015184820360608601526120d78282611fdd565b915050608083015184820360808601526120f18282611fdd565b91505060a083015161210660a0860182612048565b5060c083015161211960c0860182611f6e565b5060e083015161212c60e0860182611f6e565b50610100830151612141610100860182611f6e565b50610120830151612156610120860182612063565b5061014083015161216b610140860182611f6e565b50610160830151612180610160860182611f6e565b508091505092915050565b60006121978383612072565b905092915050565b6000602082019050919050565b60006121b782611f42565b6121c18185611f4d565b9350836020820285016121d385611f5e565b8060005b8581101561220f57848403895281516121f0858261218b565b94506121fb8361219f565b925060208a019950506001810190506121d7565b50829750879550505050505092915050565b6000602082019050818103600083015261223b81846121ac565b905092915050565b6000604051905090565b600080fd5b600080fd5b600080fd5b600080fd5b7f4e487b7100000000000000000000000000000000000000000000000000000000600052604160045260246000fd5b61229982611fcc565b810181811067ffffffffffffffff821117156122b8576122b7612261565b5b80604052505050565b60006122cb612243565b90506122d78282612290565b919050565b600067ffffffffffffffff8211156122f7576122f6612261565b5b61230082611fcc565b9050602081019050919050565b82818337600083830152505050565b600061232f61232a846122dc565b6122c1565b90508281526020810184848401111561234b5761234a61225c565b5b61235684828561230d565b509392505050565b600082601f83011261237357612372612257565b5b813561238384826020860161231c565b91505092915050565b61239581612036565b81146123a057600080fd5b50565b6000813590506123b28161238c565b92915050565b6123c181611f0e565b81146123cc57600080fd5b50565b6000813590506123de816123b8565b92915050565b600080600080600080600060e0888a0312156124035761240261224d565b5b600088013567ffffffffffffffff81111561242157612420612252565b5b61242d8a828b0161235e565b975050602088013567ffffffffffffffff81111561244e5761244d612252565b5b61245a8a828b0161235e565b965050604088013567ffffffffffffffff81111561247b5761247a612252565b5b6124878a828b0161235e565b955050606088013567ffffffffffffffff8111156124a8576124a7612252565b5b6124b48a828b0161235e565b94505060806124c58a828b016123a3565b93505060a06124d68a828b016123cf565b92505060c06124e78a828b016123cf565b91505092959891949750929550565b600061250182612016565b9050919050565b612511816124f6565b82525050565b600060208201905061252c6000830184612508565b92915050565b6000602082840312156125485761254761224d565b5b6000612556848285016123cf565b91505092915050565b600082825260208201905092915050565b600061257b82611f7d565b612585818561255f565b9350612595818560208601611f99565b61259e81611fcc565b840191505092915050565b6125b281612036565b82525050565b6125c181612057565b82525050565b6000610180820190506125dd600083018f611f18565b81810360208301526125ef818e612570565b90508181036040830152612603818d612570565b90508181036060830152612617818c612570565b9050818103608083015261262b818b612570565b905061263a60a083018a6125a9565b61264760c0830189611f18565b61265460e0830188611f18565b612662610100830187611f18565b6126706101208301866125b8565b61267e610140830185611f18565b61268c610160830184611f18565b9d9c50505050505050505050505050565b600080604083850312156126b4576126b361224d565b5b60006126c2858286016123cf565b92505060206126d3858286016123cf565b9150509250929050565b6000610180830160008301516126f66000860182611f6e565b506020830151848203602086015261270e8282611fdd565b915050604083015184820360408601526127288282611fdd565b915050606083015184820360608601526127428282611fdd565b9150506080830151848203608086015261275c8282611fdd565b91505060a083015161277160a0860182612048565b5060c083015161278460c0860182611f6e565b5060e083015161279760e0860182611f6e565b506101008301516127ac610100860182611f6e565b506101208301516127c1610120860182612063565b506101408301516127d6610140860182611f6e565b506101608301516127eb610160860182611f6e565b508091505092915050565b6000602082019050818103600083015261281081846126dd565b905092915050565b600060208201905061282d60008301846125b8565b92915050565b7f4e487b7100000000000000000000000000000000000000000000000000000000600052602260045260246000fd5b6000600282049050600182168061287a57607f821691505b6020821081141561288e5761288d612833565b5b50919050565b7f4e487b7100000000000000000000000000000000000000000000000000000000600052603260045260246000fd5b7f4e487b7100000000000000000000000000000000000000000000000000000000600052601160045260246000fd5b60006128fd82611f0e565b91507fffffffffffffffffffffffffffffffffffffffffffffffffffffffffffffffff8214156129305761292f6128c3565b5b600182019050919050565b7f446561646c696e65205061737365640000000000000000000000000000000000600082015250565b6000612971600f8361255f565b915061297c8261293b565b602082019050919050565b600060208201905081810360008301526129a081612964565b9050919050565b7f546172676574206e6f7420416368656976656420596574000000000000000000600082015250565b60006129dd60178361255f565b91506129e8826129a7565b602082019050919050565b60006020820190508181036000830152612a0c816129d0565b9050919050565b7f52657175657374206e6f7420617070726f766564000000000000000000000000600082015250565b6000612a4960148361255f565b9150612a5482612a13565b602082019050919050565b60006020820190508181036000830152612a7881612a3c565b9050919050565b7f546865207265717565737420686173206265656e20636f6d706c657465640000600082015250565b6000612ab5601e8361255f565b9150612ac082612a7f565b602082019050919050565b60006020820190508181036000830152612ae481612aa8565b9050919050565b6000612af682611f0e565b9150612b0183611f0e565b9250817fffffffffffffffffffffffffffffffffffffffffffffffffffffffffffffffff0483118215151615612b3a57612b396128c3565b5b828202905092915050565b7f4e487b7100000000000000000000000000000000000000000000000000000000600052601260045260246000fd5b6000612b7f82611f0e565b9150612b8a83611f0e565b925082612b9a57612b99612b45565b5b828204905092915050565b7f4f6e6c79206d616e616765722063616e2063616c6c6c20746869732066756e6360008201527f74696f6e00000000000000000000000000000000000000000000000000000000602082015250565b6000612c0160248361255f565b9150612c0c82612ba5565b604082019050919050565b60006020820190508181036000830152612c3081612bf4565b9050919050565b7f646561646c696e65207061737365640000000000000000000000000000000000600082015250565b6000612c6d600f8361255f565b9150612c7882612c37565b602082019050919050565b60006020820190508181036000830152612c9c81612c60565b9050919050565b7f7461726765742041636869657665640000000000000000000000000000000000600082015250565b6000612cd9600f8361255f565b9150612ce482612ca3565b602082019050919050565b60006020820190508181036000830152612d0881612ccc565b9050919050565b6000612d1a82611f0e565b9150612d2583611f0e565b9250827fffffffffffffffffffffffffffffffffffffffffffffffffffffffffffffffff03821115612d5a57612d596128c3565b5b828201905092915050565b6000612d7082611f0e565b9150612d7b83611f0e565b925082821015612d8e57612d8d6128c3565b5b82820390509291505056fea26469706673582212207cd7976041ab951ec571d024909b37fc0e34b5d0f2c4e877b2dbc84367919a1464736f6c63430008090033",
  "immutableReferences": {},
  "source": "// SPDX-License-Identifier: MIT\r\npragma solidity >=0.4.22 <0.9.0;\r\n\r\ncontract Funder {\r\n    mapping(address => bool) contributors;\r\n    mapping(address => uint256) contributes;\r\n    uint256 public cont;\r\n    address public manager;\r\n    uint256 public extra;\r\n\r\n    struct Request {\r\n        uint256 id;\r\n        string img_hash;\r\n        string file_hash;\r\n        string category;\r\n        string description;\r\n        address payable recipient;\r\n        uint256 deadline;\r\n        uint256 target;\r\n        uint256 raisedAmount;\r\n        bool completed;\r\n        uint256 noOfDonors;\r\n        uint256 approved;\r\n    }\r\n    struct wapas {\r\n        address donor;\r\n        uint256 paid;\r\n        bool wapaas;\r\n    }\r\n    mapping(uint256 => wapas[]) refund;\r\n\r\n    mapping(address => uint256[]) whocreaterequest; //to see Who creates a particular request\r\n    mapping(uint256 => Request) public requests; // keep id,record pair\r\n    uint256 public numRequests; // keep count of requests\r\n\r\n    constructor() {\r\n        manager = msg.sender;\r\n    }\r\n\r\n    receive() external payable {}\r\n\r\n    // function for donors to donate the amount for a request\r\n    function sendEth(uint256 i) public payable returns (bool) {\r\n        require(block.timestamp < requests[i].deadline, \"deadline passed\");\r\n        require(\r\n            requests[i].raisedAmount < requests[i].target,\r\n            \"target Achieved\"\r\n        );\r\n        // if(requests[i].donors[msg.sender]==0)\r\n        requests[i].noOfDonors++;\r\n        if (contributors[msg.sender] == false) {\r\n            contributors[msg.sender] = true;\r\n            cont++;\r\n        }\r\n        // wapas storage newwapas=refund[];\r\n        refund[i].push(wapas(msg.sender, msg.value, false));\r\n        requests[i].raisedAmount += msg.value;\r\n        contributes[msg.sender] += msg.value;\r\n\r\n        if (requests[i].raisedAmount >= requests[i].target) {\r\n            extra += (requests[i].raisedAmount - requests[i].target);\r\n            makePayment(i);\r\n        }\r\n        return true;\r\n    }\r\n\r\n    modifier onlyManger() {\r\n        require(msg.sender == manager, \"Only manager can calll this function\");\r\n        _;\r\n    }\r\n\r\n    // function to know contract balance\r\n    function getContractBalance() public view returns (uint256) {\r\n        return address(this).balance;\r\n    }\r\n\r\n    // function for creating request\r\n\r\n    function createRequests(\r\n        string memory cate,\r\n        string memory _description,\r\n        string memory imghash,\r\n        string memory filehash,\r\n        address payable _recipient,\r\n        uint256 _time,\r\n        uint256 _target\r\n    ) public {\r\n        // require(block.timestamp>_time,\"deadline passed\");\r\n        Request storage newRequest = requests[numRequests];\r\n        newRequest.id = numRequests;\r\n        newRequest.category = cate;\r\n        newRequest.img_hash = imghash;\r\n        newRequest.file_hash = filehash;\r\n        newRequest.description = _description;\r\n        newRequest.recipient = _recipient;\r\n        newRequest.deadline = _time;\r\n        newRequest.target = _target;\r\n        newRequest.raisedAmount = 0;\r\n        newRequest.completed = false;\r\n        newRequest.approved = 0;\r\n        newRequest.noOfDonors = 0;\r\n        whocreaterequest[msg.sender].push(numRequests);\r\n        numRequests++;\r\n    }\r\n\r\n    //function to get no of request an particular address creates\r\n    function seemyrequests() public view returns (Request[] memory) {\r\n        Request[] memory yrequest = new Request[](\r\n            (whocreaterequest[msg.sender]).length\r\n        );\r\n\r\n        for (uint256 i = 0; i < whocreaterequest[msg.sender].length; i++) {\r\n            Request storage lBi = requests[(whocreaterequest[msg.sender])[i]];\r\n            yrequest[i] = lBi;\r\n        }\r\n        return yrequest;\r\n    }\r\n\r\n    //to refund all amount\r\n    function refundback(uint256 k) public onlyManger {\r\n        uint256 i = 0;\r\n        uint256 j;\r\n        for (j = i; j < refund[k].length; j++) {\r\n            // wapas storage thiswapas=refund[k][j];\r\n            require(block.timestamp > requests[i].deadline, \"deadline passed\");\r\n            require(\r\n                requests[i].raisedAmount < requests[i].target,\r\n                \"target Achieved\"\r\n            );\r\n            payable(refund[k][j].donor).transfer(((refund[k][j].paid)));\r\n            refund[k][j].paid = 0;\r\n            refund[k][j].wapaas = true;\r\n        }\r\n    }\r\n\r\n    //function to validate an pending request\r\n    function isApproved(uint256 id, uint256 a) public onlyManger {\r\n        requests[id].approved = a;\r\n    }\r\n\r\n    //function to return request details\r\n    function getRequest(uint256 id) public view returns (Request memory) {\r\n        Request storage r = requests[id];\r\n        return r;\r\n    }\r\n\r\n    function getBid() public view returns (Request[] memory) {\r\n        Request[] memory lBids = new Request[](numRequests);\r\n        for (uint256 i = 0; i < numRequests; i++) {\r\n            //  require(requests[i].completed==false);\r\n            Request storage lBid = requests[i];\r\n            lBids[i] = lBid;\r\n        }\r\n        return lBids;\r\n    }\r\n\r\n    // function to return manager address\r\n    function getmanager() public view returns (address) {\r\n        return manager;\r\n    }\r\n\r\n    //function to get count of requests\r\n    function getRequestNo() public view returns (uint256) {\r\n        return numRequests;\r\n    }\r\n\r\n    //function to send the raised ami=ount to receipients address\r\n    function makePayment(uint256 i) public payable {\r\n        //    for(uint i=0;i<numRequests;i++)\r\n        //    {\r\n        Request storage thisRequest = requests[i];\r\n        require(thisRequest.deadline >= block.timestamp, \"Deadline Passed\");\r\n        require(\r\n            thisRequest.raisedAmount >= requests[i].target,\r\n            \"Target not Acheived Yet\"\r\n        );\r\n        require(thisRequest.approved == 1, \"Request not approved\");\r\n        require(\r\n            thisRequest.completed == false,\r\n            \"The request has been completed\"\r\n        );\r\n        payable(thisRequest.recipient).transfer(\r\n            ((thisRequest.raisedAmount) * 99) / 100\r\n        );\r\n        thisRequest.completed = true;\r\n        thisRequest.approved = 1;\r\n        //    }\r\n    }\r\n\r\n    //function to check amount an particular address has donate\r\n\r\n    function contri() public view returns (uint256) {\r\n        return contributes[msg.sender];\r\n    }\r\n}\r\n\r\n// upar new code h\r\n\r\n// pragma solidity >=0.4.22 <0.9.0;\r\n\r\n// contract Funder {\r\n//     mapping(address => bool) contributors;\r\n//     mapping(address => uint256) contributes;\r\n\r\n//     uint256 public cont;\r\n//     address public manager;\r\n//     uint256 public extra;\r\n\r\n//     struct Request {\r\n//         uint256 id;\r\n//         string img_hash;\r\n//         string file_hash;\r\n//         string category;\r\n//         string description;\r\n//         address payable recipient;\r\n//         uint256 deadline;\r\n//         uint256 target;\r\n//         uint256 raisedAmount;\r\n//         bool completed;\r\n//         uint256 noOfDonors;\r\n//         uint256 approved;\r\n//     }\r\n\r\n//     mapping(address => uint256[]) whocreaterequest; //to see Who creates a particular request\r\n//     mapping(uint256 => Request) public requests; // keep id,record pair\r\n//     uint256 public numRequests; // keep count of requests\r\n\r\n//     constructor() {\r\n//         manager = msg.sender;\r\n//     }\r\n\r\n//     receive() external payable {}\r\n\r\n//     // function for donors to donate the amount for a request\r\n//     function sendEth(uint256 i) public payable returns (bool) {\r\n//         require(block.timestamp < requests[i].deadline, \"deadline passed\");\r\n//         require(\r\n//             requests[i].raisedAmount < requests[i].target,\r\n//             \"target Achieved\"\r\n//         );\r\n//         // if(requests[i].donors[msg.sender]==0)\r\n//         requests[i].noOfDonors++;\r\n//         if (contributors[msg.sender] == false) {\r\n//             contributors[msg.sender] = true;\r\n//             cont++;\r\n//         }\r\n\r\n//         requests[i].raisedAmount += msg.value;\r\n//         contributes[msg.sender] += msg.value;\r\n\r\n//         if (requests[i].raisedAmount >= requests[i].target) {\r\n//             extra += (requests[i].raisedAmount - requests[i].target);\r\n//             makePayment(i);\r\n//         }\r\n//         return true;\r\n//     }\r\n\r\n//     modifier onlyManger() {\r\n//         require(msg.sender == manager, \"Only manager can calll this function\");\r\n//         _;\r\n//     }\r\n\r\n//     // function to know contract balance\r\n//     function getContractBalance() public view returns (uint256) {\r\n//         return address(this).balance;\r\n//     }\r\n\r\n//     // function for creating request\r\n\r\n//     function createRequests(\r\n//         string memory cate,\r\n//         string memory _description,\r\n//         string memory imghash,\r\n//         string memory filehash,\r\n//         address payable _recipient,\r\n//         uint256 _time,\r\n//         uint256 _target\r\n//     ) public {\r\n//         // require(block.timestamp>_time,\"deadline passed\");\r\n//         Request storage newRequest = requests[numRequests];\r\n//         newRequest.id = numRequests;\r\n//         newRequest.category = cate;\r\n//         newRequest.img_hash = imghash;\r\n//         newRequest.file_hash = filehash;\r\n//         newRequest.description = _description;\r\n//         newRequest.recipient = _recipient;\r\n//         newRequest.deadline = _time;\r\n//         newRequest.target = _target;\r\n//         newRequest.raisedAmount = 0;\r\n//         newRequest.completed = false;\r\n//         newRequest.approved = 0;\r\n//         newRequest.noOfDonors = 0;\r\n//         whocreaterequest[msg.sender].push(numRequests);\r\n//         numRequests++;\r\n//     }\r\n\r\n//     //function to get no of request an particular address creates\r\n//     function seemyrequests() public view returns (Request[] memory) {\r\n//         Request[] memory yrequest = new Request[](\r\n//             (whocreaterequest[msg.sender]).length\r\n//         );\r\n\r\n//         for (uint256 i = 0; i < whocreaterequest[msg.sender].length; i++) {\r\n//             Request storage lBi = requests[(whocreaterequest[msg.sender])[i]];\r\n//             yrequest[i] = lBi;\r\n//         }\r\n//         return yrequest;\r\n//     }\r\n\r\n//     //function to validate an pending request\r\n//     function isApproved(uint256 id, uint256 a) public onlyManger {\r\n//         requests[id].approved = a;\r\n//     }\r\n\r\n//     //function to return request details\r\n//     function getRequest(uint256 id) public view returns (Request memory) {\r\n//         Request storage r = requests[id];\r\n//         return r;\r\n//     }\r\n\r\n//     function getBid() public view returns (Request[] memory) {\r\n//         Request[] memory lBids = new Request[](numRequests);\r\n//         for (uint256 i = 0; i < numRequests; i++) {\r\n//             //  require(requests[i].completed==false);\r\n//             Request storage lBid = requests[i];\r\n//             lBids[i] = lBid;\r\n//         }\r\n//         return lBids;\r\n//     }\r\n\r\n//     // function to return manager address\r\n//     function getmanager() public view returns (address) {\r\n//         return manager;\r\n//     }\r\n\r\n//     //function to get count of requests\r\n//     function getRequestNo() public view returns (uint256) {\r\n//         return numRequests;\r\n//     }\r\n\r\n//     //function to send the raised ami=ount to receipients address\r\n//     function makePayment(uint256 i) public payable {\r\n//         //    for(uint i=0;i<numRequests;i++)\r\n//         //    {\r\n//         Request storage thisRequest = requests[i];\r\n//         require(thisRequest.deadline >= block.timestamp, \"Deadline Passed\");\r\n//         require(\r\n//             thisRequest.raisedAmount >= requests[i].target,\r\n//             \"Target not Acheived Yet\"\r\n//         );\r\n//         require(thisRequest.approved == 1, \"Request not approved\");\r\n//         require(\r\n//             thisRequest.completed == false,\r\n//             \"The request has been completed\"\r\n//         );\r\n//         payable(thisRequest.recipient).transfer(\r\n//             ((thisRequest.raisedAmount) * 99) / 100\r\n//         );\r\n//         thisRequest.completed = true;\r\n//         thisRequest.approved = 1;\r\n//         //    }\r\n//     }\r\n\r\n//     //function to check amount an particular address has donate\r\n\r\n//     function contri() public view returns (uint256) {\r\n//         return contributes[msg.sender];\r\n//     }\r\n// }\r\n",
  "sourcePath": "C:\\Users\\LENOVO\\Desktop\\fund\\contracts\\Funder.sol",
  "compiler": {
    "name": "solc",
    "version": "0.8.9+commit.e5eed63a.Emscripten.clang"
  },
  "schemaVersion": "3.4.4",
  "updatedAt": "2023-03-07T08:01:22.998Z",
  "networkType": "ethereum",
  "devdoc": {
    "kind": "dev",
    "methods": {},
    "version": 1
  },
  "userdoc": {
    "kind": "user",
    "methods": {},
    "version": 1
  }
}