{
  "contractName": "Vote",
  "abi": [
    {
      "inputs": [],
      "stateMutability": "nonpayable",
      "type": "constructor"
    },
    {
      "inputs": [
        {
          "internalType": "address",
          "name": "",
          "type": "address"
        }
      ],
      "name": "Boter",
      "outputs": [
        {
          "internalType": "string",
          "name": "name",
          "type": "string"
        },
        {
          "internalType": "uint256",
          "name": "age",
          "type": "uint256"
        },
        {
          "internalType": "uint256",
          "name": "voterId",
          "type": "uint256"
        },
        {
          "internalType": "string",
          "name": "gender",
          "type": "string"
        },
        {
          "internalType": "uint256",
          "name": "voteCandidateId",
          "type": "uint256"
        },
        {
          "internalType": "string",
          "name": "aadhar",
          "type": "string"
        },
        {
          "internalType": "address",
          "name": "voterAddress",
          "type": "address"
        }
      ],
      "stateMutability": "view",
      "type": "function",
      "constant": true
    },
    {
      "inputs": [],
      "name": "electionCommision",
      "outputs": [
        {
          "internalType": "address",
          "name": "",
          "type": "address"
        }
      ],
      "stateMutability": "view",
      "type": "function",
      "constant": true
    },
    {
      "inputs": [],
      "name": "winner",
      "outputs": [
        {
          "internalType": "address",
          "name": "",
          "type": "address"
        }
      ],
      "stateMutability": "view",
      "type": "function",
      "constant": true
    },
    {
      "inputs": [],
      "name": "winnerid",
      "outputs": [
        {
          "internalType": "uint256",
          "name": "",
          "type": "uint256"
        }
      ],
      "stateMutability": "view",
      "type": "function",
      "constant": true
    },
    {
      "inputs": [
        {
          "internalType": "string",
          "name": "_name",
          "type": "string"
        },
        {
          "internalType": "string",
          "name": "_party",
          "type": "string"
        },
        {
          "internalType": "uint256",
          "name": "_age",
          "type": "uint256"
        },
        {
          "internalType": "string",
          "name": "_gender",
          "type": "string"
        },
        {
          "internalType": "string",
          "name": "_aadhar",
          "type": "string"
        },
        {
          "internalType": "address",
          "name": "caddress",
          "type": "address"
        }
      ],
      "name": "candidateRegister",
      "outputs": [],
      "stateMutability": "nonpayable",
      "type": "function"
    },
    {
      "inputs": [],
      "name": "candidateList",
      "outputs": [
        {
          "components": [
            {
              "internalType": "string",
              "name": "name",
              "type": "string"
            },
            {
              "internalType": "string",
              "name": "party",
              "type": "string"
            },
            {
              "internalType": "uint256",
              "name": "age",
              "type": "uint256"
            },
            {
              "internalType": "string",
              "name": "gender",
              "type": "string"
            },
            {
              "internalType": "uint256",
              "name": "candidateId",
              "type": "uint256"
            },
            {
              "internalType": "string",
              "name": "aadhar",
              "type": "string"
            },
            {
              "internalType": "address",
              "name": "candidateAddress",
              "type": "address"
            },
            {
              "internalType": "uint256",
              "name": "votes",
              "type": "uint256"
            }
          ],
          "internalType": "struct Vote.Candidate[]",
          "name": "",
          "type": "tuple[]"
        }
      ],
      "stateMutability": "view",
      "type": "function",
      "constant": true
    },
    {
      "inputs": [
        {
          "internalType": "string",
          "name": "_name",
          "type": "string"
        },
        {
          "internalType": "uint256",
          "name": "_age",
          "type": "uint256"
        },
        {
          "internalType": "string",
          "name": "_gender",
          "type": "string"
        },
        {
          "internalType": "string",
          "name": "_aadhar",
          "type": "string"
        }
      ],
      "name": "voterRegister",
      "outputs": [],
      "stateMutability": "nonpayable",
      "type": "function"
    },
    {
      "inputs": [],
      "name": "voterList",
      "outputs": [
        {
          "components": [
            {
              "internalType": "string",
              "name": "name",
              "type": "string"
            },
            {
              "internalType": "uint256",
              "name": "age",
              "type": "uint256"
            },
            {
              "internalType": "uint256",
              "name": "voterId",
              "type": "uint256"
            },
            {
              "internalType": "string",
              "name": "gender",
              "type": "string"
            },
            {
              "internalType": "uint256",
              "name": "voteCandidateId",
              "type": "uint256"
            },
            {
              "internalType": "string",
              "name": "aadhar",
              "type": "string"
            },
            {
              "internalType": "address",
              "name": "voterAddress",
              "type": "address"
            }
          ],
          "internalType": "struct Vote.Voter[]",
          "name": "",
          "type": "tuple[]"
        }
      ],
      "stateMutability": "view",
      "type": "function",
      "constant": true
    },
    {
      "inputs": [
        {
          "internalType": "address",
          "name": "p",
          "type": "address"
        }
      ],
      "name": "returnId",
      "outputs": [
        {
          "components": [
            {
              "internalType": "string",
              "name": "name",
              "type": "string"
            },
            {
              "internalType": "uint256",
              "name": "age",
              "type": "uint256"
            },
            {
              "internalType": "uint256",
              "name": "voterId",
              "type": "uint256"
            },
            {
              "internalType": "string",
              "name": "gender",
              "type": "string"
            },
            {
              "internalType": "uint256",
              "name": "voteCandidateId",
              "type": "uint256"
            },
            {
              "internalType": "string",
              "name": "aadhar",
              "type": "string"
            },
            {
              "internalType": "address",
              "name": "voterAddress",
              "type": "address"
            }
          ],
          "internalType": "struct Vote.Voter",
          "name": "",
          "type": "tuple"
        }
      ],
      "stateMutability": "view",
      "type": "function",
      "constant": true
    },
    {
      "inputs": [
        {
          "internalType": "uint256",
          "name": "i",
          "type": "uint256"
        }
      ],
      "name": "returncId",
      "outputs": [
        {
          "components": [
            {
              "internalType": "string",
              "name": "name",
              "type": "string"
            },
            {
              "internalType": "string",
              "name": "party",
              "type": "string"
            },
            {
              "internalType": "uint256",
              "name": "age",
              "type": "uint256"
            },
            {
              "internalType": "string",
              "name": "gender",
              "type": "string"
            },
            {
              "internalType": "uint256",
              "name": "candidateId",
              "type": "uint256"
            },
            {
              "internalType": "string",
              "name": "aadhar",
              "type": "string"
            },
            {
              "internalType": "address",
              "name": "candidateAddress",
              "type": "address"
            },
            {
              "internalType": "uint256",
              "name": "votes",
              "type": "uint256"
            }
          ],
          "internalType": "struct Vote.Candidate",
          "name": "",
          "type": "tuple"
        }
      ],
      "stateMutability": "view",
      "type": "function",
      "constant": true
    },
    {
      "inputs": [
        {
          "internalType": "uint16",
          "name": "_voterId",
          "type": "uint16"
        },
        {
          "internalType": "uint16",
          "name": "_id",
          "type": "uint16"
        }
      ],
      "name": "vote",
      "outputs": [],
      "stateMutability": "nonpayable",
      "type": "function"
    },
    {
      "inputs": [
        {
          "internalType": "uint256",
          "name": "_startTime",
          "type": "uint256"
        },
        {
          "internalType": "uint256",
          "name": "_endTime",
          "type": "uint256"
        }
      ],
      "name": "voteTime",
      "outputs": [],
      "stateMutability": "nonpayable",
      "type": "function"
    },
    {
      "inputs": [],
      "name": "votingStatus",
      "outputs": [
        {
          "internalType": "string",
          "name": "",
          "type": "string"
        }
      ],
      "stateMutability": "view",
      "type": "function",
      "constant": true
    },
    {
      "inputs": [],
      "name": "result",
      "outputs": [],
      "stateMutability": "nonpayable",
      "type": "function"
    },
    {
      "inputs": [],
      "name": "emergency",
      "outputs": [],
      "stateMutability": "nonpayable",
      "type": "function"
    }
  ],
  "bytecode": "0x60806040526001600460006101000a81548161ffff021916908361ffff160217905550600160055534801561003357600080fd5b50336000806101000a81548173ffffffffffffffffffffffffffffffffffffffff021916908373ffffffffffffffffffffffffffffffffffffffff160217905550613a43806100836000396000f3fe608060405234801561001057600080fd5b50600436106100f55760003560e01c8063636f200e11610097578063c6960d4c11610066578063c6960d4c1461024c578063caa6fea41461026a578063cb459e0d14610274578063dfbf53ae146102aa576100f5565b8063636f200e146101ec578063653721471461020857806365ca2be31461021257806386dcb6831461022e576100f5565b806336500296116100d3578063365002961461016657806341f109d014610196578063498ea441146101b25780634fc35fa7146101d0576100f5565b806319f41a40146100fa57806324089918146101185780632603508514610136575b600080fd5b6101026102c8565b60405161010f9190612557565b60405180910390f35b6101206103a6565b60405161012d9190612789565b60405180910390f35b610150600480360381019061014b91906127eb565b6106dc565b60405161015d91906128dd565b60405180910390f35b610180600480360381019061017b919061292b565b6109c6565b60405161018d9190612a02565b60405180910390f35b6101b060048036038101906101ab9190612bb9565b610c49565b005b6101ba611033565b6040516101c79190612e03565b60405180910390f35b6101ea60048036038101906101e59190612e25565b6113cc565b005b61020660048036038101906102019190612f6a565b611760565b005b610210611ac0565b005b61022c60048036038101906102279190612faa565b611cda565b005b610236611dad565b6040516102439190612ff9565b60405180910390f35b610254611dd1565b6040516102619190613023565b60405180910390f35b610272611dd7565b005b61028e6004803603810190610289919061292b565b611e82565b6040516102a1979695949392919061303e565b60405180910390f35b6102b261207c565b6040516102bf9190612ff9565b60405180910390f35b6060600060065414156102f5576040518060600160405280602881526020016139e66028913990506103a3565b600060065414158015610309575042600754115b8015610328575060001515600b60009054906101000a900460ff161515145b1561036a576040518060400160405280601281526020017f566f74696e6720696e2070726f6772657373000000000000000000000000000081525090506103a3565b6040518060400160405280600c81526020017f566f74696e6720456e646564000000000000000000000000000000000000000081525090505b90565b606060006001600460009054906101000a900461ffff166103c791906130f1565b61ffff1667ffffffffffffffff8111156103e4576103e3612a8e565b5b60405190808252806020026020018201604052801561041d57816020015b61040a6122e0565b8152602001906001900390816104025790505b5090506000600190505b600460009054906101000a900461ffff1661ffff168161ffff1610156106d457600860008261ffff1681526020019081526020016000206040518060e001604052908160008201805461047990613154565b80601f01602080910402602001604051908101604052809291908181526020018280546104a590613154565b80156104f25780601f106104c7576101008083540402835291602001916104f2565b820191906000526020600020905b8154815290600101906020018083116104d557829003601f168201915b50505050508152602001600182015481526020016002820154815260200160038201805461051f90613154565b80601f016020809104026020016040519081016040528092919081815260200182805461054b90613154565b80156105985780601f1061056d57610100808354040283529160200191610598565b820191906000526020600020905b81548152906001019060200180831161057b57829003601f168201915b50505050508152602001600482015481526020016005820180546105bb90613154565b80601f01602080910402602001604051908101604052809291908181526020018280546105e790613154565b80156106345780601f1061060957610100808354040283529160200191610634565b820191906000526020600020905b81548152906001019060200180831161061757829003601f168201915b505050505081526020016006820160009054906101000a900473ffffffffffffffffffffffffffffffffffffffff1673ffffffffffffffffffffffffffffffffffffffff1673ffffffffffffffffffffffffffffffffffffffff1681525050826001836106a191906130f1565b61ffff16815181106106b6576106b5613186565b5b602002602001018190525080806106cc906131b5565b915050610427565b508091505090565b6106e4612333565b600a60008381526020019081526020016000206040518061010001604052908160008201805461071390613154565b80601f016020809104026020016040519081016040528092919081815260200182805461073f90613154565b801561078c5780601f106107615761010080835404028352916020019161078c565b820191906000526020600020905b81548152906001019060200180831161076f57829003601f168201915b505050505081526020016001820180546107a590613154565b80601f01602080910402602001604051908101604052809291908181526020018280546107d190613154565b801561081e5780601f106107f35761010080835404028352916020019161081e565b820191906000526020600020905b81548152906001019060200180831161080157829003601f168201915b505050505081526020016002820154815260200160038201805461084190613154565b80601f016020809104026020016040519081016040528092919081815260200182805461086d90613154565b80156108ba5780601f1061088f576101008083540402835291602001916108ba565b820191906000526020600020905b81548152906001019060200180831161089d57829003601f168201915b50505050508152602001600482015481526020016005820180546108dd90613154565b80601f016020809104026020016040519081016040528092919081815260200182805461090990613154565b80156109565780601f1061092b57610100808354040283529160200191610956565b820191906000526020600020905b81548152906001019060200180831161093957829003601f168201915b505050505081526020016006820160009054906101000a900473ffffffffffffffffffffffffffffffffffffffff1673ffffffffffffffffffffffffffffffffffffffff1673ffffffffffffffffffffffffffffffffffffffff1681526020016007820154815250509050919050565b6109ce6122e0565b600960008373ffffffffffffffffffffffffffffffffffffffff1673ffffffffffffffffffffffffffffffffffffffff1681526020019081526020016000206040518060e0016040529081600082018054610a2890613154565b80601f0160208091040260200160405190810160405280929190818152602001828054610a5490613154565b8015610aa15780601f10610a7657610100808354040283529160200191610aa1565b820191906000526020600020905b815481529060010190602001808311610a8457829003601f168201915b505050505081526020016001820154815260200160028201548152602001600382018054610ace90613154565b80601f0160208091040260200160405190810160405280929190818152602001828054610afa90613154565b8015610b475780601f10610b1c57610100808354040283529160200191610b47565b820191906000526020600020905b815481529060010190602001808311610b2a57829003601f168201915b5050505050815260200160048201548152602001600582018054610b6a90613154565b80601f0160208091040260200160405190810160405280929190818152602001828054610b9690613154565b8015610be35780601f10610bb857610100808354040283529160200191610be3565b820191906000526020600020905b815481529060010190602001808311610bc657829003601f168201915b505050505081526020016006820160009054906101000a900473ffffffffffffffffffffffffffffffffffffffff1673ffffffffffffffffffffffffffffffffffffffff1673ffffffffffffffffffffffffffffffffffffffff16815250509050919050565b610c5333826120a2565b610c92576040517f08c379a0000000000000000000000000000000000000000000000000000000008152600401610c899061322c565b60405180910390fd5b6012841015610cd6576040517f08c379a0000000000000000000000000000000000000000000000000000000008152600401610ccd90613298565b60405180910390fd5b6040518060e0016040528087878080601f016020809104026020016040519081016040528093929190818152602001838380828437600081840152601f19601f820116905080830192505050505050508152602001858152602001600460009054906101000a900461ffff1661ffff16815260200184848080601f016020809104026020016040519081016040528093929190818152602001838380828437600081840152601f19601f820116905080830192505050505050508152602001600081526020018281526020013373ffffffffffffffffffffffffffffffffffffffff1681525060086000600460009054906101000a900461ffff1661ffff1681526020019081526020016000206000820151816000019080519060200190610dff92919061238e565b5060208201518160010155604082015181600201556060820151816003019080519060200190610e3092919061238e565b506080820151816004015560a0820151816005019080519060200190610e5792919061238e565b5060c08201518160060160006101000a81548173ffffffffffffffffffffffffffffffffffffffff021916908373ffffffffffffffffffffffffffffffffffffffff16021790555090505060086000600460009054906101000a900461ffff1661ffff168152602001908152602001600020600960003373ffffffffffffffffffffffffffffffffffffffff1673ffffffffffffffffffffffffffffffffffffffff1681526020019081526020016000206000820181600001908054610f1c90613154565b610f27929190612414565b5060018201548160010155600282015481600201556003820181600301908054610f5090613154565b610f5b929190612414565b50600482015481600401556005820181600501908054610f7a90613154565b610f85929190612414565b506006820160009054906101000a900473ffffffffffffffffffffffffffffffffffffffff168160060160006101000a81548173ffffffffffffffffffffffffffffffffffffffff021916908373ffffffffffffffffffffffffffffffffffffffff1602179055509050506004600081819054906101000a900461ffff1680929190611010906131b5565b91906101000a81548161ffff021916908361ffff16021790555050505050505050565b60606000600160055461104691906132b8565b67ffffffffffffffff81111561105f5761105e612a8e565b5b60405190808252806020026020018201604052801561109857816020015b611085612333565b81526020019060019003908161107d5790505b5090506000600190505b6005548110156113c457600a6000828152602001908152602001600020604051806101000160405290816000820180546110db90613154565b80601f016020809104026020016040519081016040528092919081815260200182805461110790613154565b80156111545780601f1061112957610100808354040283529160200191611154565b820191906000526020600020905b81548152906001019060200180831161113757829003601f168201915b5050505050815260200160018201805461116d90613154565b80601f016020809104026020016040519081016040528092919081815260200182805461119990613154565b80156111e65780601f106111bb576101008083540402835291602001916111e6565b820191906000526020600020905b8154815290600101906020018083116111c957829003601f168201915b505050505081526020016002820154815260200160038201805461120990613154565b80601f016020809104026020016040519081016040528092919081815260200182805461123590613154565b80156112825780601f1061125757610100808354040283529160200191611282565b820191906000526020600020905b81548152906001019060200180831161126557829003601f168201915b50505050508152602001600482015481526020016005820180546112a590613154565b80601f01602080910402602001604051908101604052809291908181526020018280546112d190613154565b801561131e5780601f106112f35761010080835404028352916020019161131e565b820191906000526020600020905b81548152906001019060200180831161130157829003601f168201915b505050505081526020016006820160009054906101000a900473ffffffffffffffffffffffffffffffffffffffff1673ffffffffffffffffffffffffffffffffffffffff1673ffffffffffffffffffffffffffffffffffffffff1681526020016007820154815250508260018361139591906132b8565b815181106113a6576113a5613186565b5b602002602001018190525080806113bc906132ec565b9150506110a2565b508091505090565b60008054906101000a900473ffffffffffffffffffffffffffffffffffffffff1673ffffffffffffffffffffffffffffffffffffffff163373ffffffffffffffffffffffffffffffffffffffff16141561145b576040517f08c379a000000000000000000000000000000000000000000000000000000000815260040161145290613381565b60405180910390fd5b61146533836121d0565b6114a4576040517f08c379a000000000000000000000000000000000000000000000000000000000815260040161149b906133ed565b60405180910390fd5b60128510156114e8576040517f08c379a00000000000000000000000000000000000000000000000000000000081526004016114df90613459565b60405180910390fd5b600a6005541061152d576040517f08c379a0000000000000000000000000000000000000000000000000000000008152600401611524906134c5565b60405180910390fd5b6040518061010001604052808a8a8080601f016020809104026020016040519081016040528093929190818152602001838380828437600081840152601f19601f82011690508083019250505050505050815260200188888080601f016020809104026020016040519081016040528093929190818152602001838380828437600081840152601f19601f82011690508083019250505050505050815260200186815260200185858080601f016020809104026020016040519081016040528093929190818152602001838380828437600081840152601f19601f82011690508083019250505050505050815260200160055481526020018381526020018273ffffffffffffffffffffffffffffffffffffffff1681526020016000815250600a60006005548152602001908152602001600020600082015181600001908051906020019061167d92919061238e565b50602082015181600101908051906020019061169a92919061238e565b506040820151816002015560608201518160030190805190602001906116c192919061238e565b506080820151816004015560a08201518160050190805190602001906116e892919061238e565b5060c08201518160060160006101000a81548173ffffffffffffffffffffffffffffffffffffffff021916908373ffffffffffffffffffffffffffffffffffffffff16021790555060e0820151816007015590505060056000815480929190611750906132ec565b9190505550505050505050505050565b42600754118061177c5750600b60009054906101000a900460ff165b6117bb576040517f08c379a00000000000000000000000000000000000000000000000000000000081526004016117b290613531565b60405180910390fd5b6000600860008461ffff1681526020019081526020016000206004015414611818576040517f08c379a000000000000000000000000000000000000000000000000000000000815260040161180f9061359d565b60405180910390fd5b3373ffffffffffffffffffffffffffffffffffffffff16600860008461ffff16815260200190815260200160002060060160009054906101000a900473ffffffffffffffffffffffffffffffffffffffff1673ffffffffffffffffffffffffffffffffffffffff16146118c0576040517f08c379a00000000000000000000000000000000000000000000000000000000081526004016118b790613609565b60405180910390fd5b6006544211611904576040517f08c379a00000000000000000000000000000000000000000000000000000000081526004016118fb90613675565b60405180910390fd5b6007544210611948576040517f08c379a000000000000000000000000000000000000000000000000000000000815260040161193f906136e1565b60405180910390fd5b60026005541161198d576040517f08c379a000000000000000000000000000000000000000000000000000000000815260040161198490613773565b60405180910390fd5b60008161ffff161180156119a55750600a8161ffff16105b6119e4576040517f08c379a00000000000000000000000000000000000000000000000000000000081526004016119db906137df565b60405180910390fd5b8061ffff16600860008461ffff168152602001908152602001600020600401819055508061ffff1660096000600860008661ffff16815260200190815260200160002060060160009054906101000a900473ffffffffffffffffffffffffffffffffffffffff1673ffffffffffffffffffffffffffffffffffffffff1673ffffffffffffffffffffffffffffffffffffffff16815260200190815260200160002060040181905550600a60008261ffff1681526020019081526020016000206007016000815480929190611ab7906132ec565b91905055505050565b3373ffffffffffffffffffffffffffffffffffffffff1660008054906101000a900473ffffffffffffffffffffffffffffffffffffffff1673ffffffffffffffffffffffffffffffffffffffff1614611b4e576040517f08c379a0000000000000000000000000000000000000000000000000000000008152600401611b4590613871565b60405180910390fd5b60006001600554611b5f91906132b8565b67ffffffffffffffff811115611b7857611b77612a8e565b5b604051908082528060200260200182016040528015611bb157816020015b611b9e612333565b815260200190600190039081611b965790505b509050611bbc611033565b905060005b6001600554611bd091906132b8565b811015611cbb57600354828281518110611bed57611bec613186565b5b602002602001015160e0015110611ca857818181518110611c1157611c10613186565b5b602002602001015160c00151600160006101000a81548173ffffffffffffffffffffffffffffffffffffffff021916908373ffffffffffffffffffffffffffffffffffffffff160217905550818181518110611c7057611c6f613186565b5b602002602001015160800151600281905550818181518110611c9557611c94613186565b5b602002602001015160e001516003819055505b8080611cb3906132ec565b915050611bc1565b506001600b60006101000a81548160ff02191690831515021790555050565b3373ffffffffffffffffffffffffffffffffffffffff1660008054906101000a900473ffffffffffffffffffffffffffffffffffffffff1673ffffffffffffffffffffffffffffffffffffffff1614611d68576040517f08c379a0000000000000000000000000000000000000000000000000000000008152600401611d5f90613871565b60405180910390fd5b8142611d749190613891565b60068190555080600654611d889190613891565b6007819055506000600b60006101000a81548160ff0219169083151502179055505050565b60008054906101000a900473ffffffffffffffffffffffffffffffffffffffff1681565b60025481565b3373ffffffffffffffffffffffffffffffffffffffff1660008054906101000a900473ffffffffffffffffffffffffffffffffffffffff1673ffffffffffffffffffffffffffffffffffffffff1614611e65576040517f08c379a0000000000000000000000000000000000000000000000000000000008152600401611e5c90613871565b60405180910390fd5b6001600b60006101000a81548160ff021916908315150217905550565b6009602052806000526040600020600091509050806000018054611ea590613154565b80601f0160208091040260200160405190810160405280929190818152602001828054611ed190613154565b8015611f1e5780601f10611ef357610100808354040283529160200191611f1e565b820191906000526020600020905b815481529060010190602001808311611f0157829003601f168201915b505050505090806001015490806002015490806003018054611f3f90613154565b80601f0160208091040260200160405190810160405280929190818152602001828054611f6b90613154565b8015611fb85780601f10611f8d57610100808354040283529160200191611fb8565b820191906000526020600020905b815481529060010190602001808311611f9b57829003601f168201915b505050505090806004015490806005018054611fd390613154565b80601f0160208091040260200160405190810160405280929190818152602001828054611fff90613154565b801561204c5780601f106120215761010080835404028352916020019161204c565b820191906000526020600020905b81548152906001019060200180831161202f57829003601f168201915b5050505050908060060160009054906101000a900473ffffffffffffffffffffffffffffffffffffffff16905087565b600160009054906101000a900473ffffffffffffffffffffffffffffffffffffffff1681565b600080600190505b600460009054906101000a900461ffff1661ffff168161ffff1610156121c4578373ffffffffffffffffffffffffffffffffffffffff16600860008361ffff16815260200190815260200160002060060160009054906101000a900473ffffffffffffffffffffffffffffffffffffffff1673ffffffffffffffffffffffffffffffffffffffff1614806121a257508260405160200161214a9190613923565b60405160208183030381529060405280519060200120600860008361ffff16815260200190815260200160002060050160405160200161218a91906139ce565b60405160208183030381529060405280519060200120145b156121b15760009150506121ca565b80806121bc906131b5565b9150506120aa565b50600190505b92915050565b600080600190505b6005548110156122d4578373ffffffffffffffffffffffffffffffffffffffff16600a600083815260200190815260200160002060060160009054906101000a900473ffffffffffffffffffffffffffffffffffffffff1673ffffffffffffffffffffffffffffffffffffffff1614806122b257508260405160200161225e9190613923565b60405160208183030381529060405280519060200120600a600083815260200190815260200160002060050160405160200161229a91906139ce565b60405160208183030381529060405280519060200120145b156122c15760009150506122da565b80806122cc906132ec565b9150506121d8565b50600190505b92915050565b6040518060e00160405280606081526020016000815260200160008152602001606081526020016000815260200160608152602001600073ffffffffffffffffffffffffffffffffffffffff1681525090565b604051806101000160405280606081526020016060815260200160008152602001606081526020016000815260200160608152602001600073ffffffffffffffffffffffffffffffffffffffff168152602001600081525090565b82805461239a90613154565b90600052602060002090601f0160209004810192826123bc5760008555612403565b82601f106123d557805160ff1916838001178555612403565b82800160010185558215612403579182015b828111156124025782518255916020019190600101906123e7565b5b50905061241091906124a1565b5090565b82805461242090613154565b90600052602060002090601f0160209004810192826124425760008555612490565b82601f106124535780548555612490565b8280016001018555821561249057600052602060002091601f016020900482015b8281111561248f578254825591600101919060010190612474565b5b50905061249d91906124a1565b5090565b5b808211156124ba5760008160009055506001016124a2565b5090565b600081519050919050565b600082825260208201905092915050565b60005b838110156124f85780820151818401526020810190506124dd565b83811115612507576000848401525b50505050565b6000601f19601f8301169050919050565b6000612529826124be565b61253381856124c9565b93506125438185602086016124da565b61254c8161250d565b840191505092915050565b60006020820190508181036000830152612571818461251e565b905092915050565b600081519050919050565b600082825260208201905092915050565b6000819050602082019050919050565b600082825260208201905092915050565b60006125c1826124be565b6125cb81856125a5565b93506125db8185602086016124da565b6125e48161250d565b840191505092915050565b6000819050919050565b612602816125ef565b82525050565b600073ffffffffffffffffffffffffffffffffffffffff82169050919050565b600061263382612608565b9050919050565b61264381612628565b82525050565b600060e083016000830151848203600086015261266682826125b6565b915050602083015161267b60208601826125f9565b50604083015161268e60408601826125f9565b50606083015184820360608601526126a682826125b6565b91505060808301516126bb60808601826125f9565b5060a083015184820360a08601526126d382826125b6565b91505060c08301516126e860c086018261263a565b508091505092915050565b60006126ff8383612649565b905092915050565b6000602082019050919050565b600061271f82612579565b6127298185612584565b93508360208202850161273b85612595565b8060005b85811015612777578484038952815161275885826126f3565b945061276383612707565b925060208a0199505060018101905061273f565b50829750879550505050505092915050565b600060208201905081810360008301526127a38184612714565b905092915050565b6000604051905090565b600080fd5b600080fd5b6127c8816125ef565b81146127d357600080fd5b50565b6000813590506127e5816127bf565b92915050565b600060208284031215612801576128006127b5565b5b600061280f848285016127d6565b91505092915050565b600061010083016000830151848203600086015261283682826125b6565b9150506020830151848203602086015261285082826125b6565b915050604083015161286560408601826125f9565b506060830151848203606086015261287d82826125b6565b915050608083015161289260808601826125f9565b5060a083015184820360a08601526128aa82826125b6565b91505060c08301516128bf60c086018261263a565b5060e08301516128d260e08601826125f9565b508091505092915050565b600060208201905081810360008301526128f78184612818565b905092915050565b61290881612628565b811461291357600080fd5b50565b600081359050612925816128ff565b92915050565b600060208284031215612941576129406127b5565b5b600061294f84828501612916565b91505092915050565b600060e083016000830151848203600086015261297582826125b6565b915050602083015161298a60208601826125f9565b50604083015161299d60408601826125f9565b50606083015184820360608601526129b582826125b6565b91505060808301516129ca60808601826125f9565b5060a083015184820360a08601526129e282826125b6565b91505060c08301516129f760c086018261263a565b508091505092915050565b60006020820190508181036000830152612a1c8184612958565b905092915050565b600080fd5b600080fd5b600080fd5b60008083601f840112612a4957612a48612a24565b5b8235905067ffffffffffffffff811115612a6657612a65612a29565b5b602083019150836001820283011115612a8257612a81612a2e565b5b9250929050565b600080fd5b7f4e487b7100000000000000000000000000000000000000000000000000000000600052604160045260246000fd5b612ac68261250d565b810181811067ffffffffffffffff82111715612ae557612ae4612a8e565b5b80604052505050565b6000612af86127ab565b9050612b048282612abd565b919050565b600067ffffffffffffffff821115612b2457612b23612a8e565b5b612b2d8261250d565b9050602081019050919050565b82818337600083830152505050565b6000612b5c612b5784612b09565b612aee565b905082815260208101848484011115612b7857612b77612a89565b5b612b83848285612b3a565b509392505050565b600082601f830112612ba057612b9f612a24565b5b8135612bb0848260208601612b49565b91505092915050565b60008060008060008060808789031215612bd657612bd56127b5565b5b600087013567ffffffffffffffff811115612bf457612bf36127ba565b5b612c0089828a01612a33565b96509650506020612c1389828a016127d6565b945050604087013567ffffffffffffffff811115612c3457612c336127ba565b5b612c4089828a01612a33565b9350935050606087013567ffffffffffffffff811115612c6357612c626127ba565b5b612c6f89828a01612b8b565b9150509295509295509295565b600081519050919050565b600082825260208201905092915050565b6000819050602082019050919050565b6000610100830160008301518482036000860152612cc682826125b6565b91505060208301518482036020860152612ce082826125b6565b9150506040830151612cf560408601826125f9565b5060608301518482036060860152612d0d82826125b6565b9150506080830151612d2260808601826125f9565b5060a083015184820360a0860152612d3a82826125b6565b91505060c0830151612d4f60c086018261263a565b5060e0830151612d6260e08601826125f9565b508091505092915050565b6000612d798383612ca8565b905092915050565b6000602082019050919050565b6000612d9982612c7c565b612da38185612c87565b935083602082028501612db585612c98565b8060005b85811015612df15784840389528151612dd28582612d6d565b9450612ddd83612d81565b925060208a01995050600181019050612db9565b50829750879550505050505092915050565b60006020820190508181036000830152612e1d8184612d8e565b905092915050565b600080600080600080600080600060c08a8c031215612e4757612e466127b5565b5b60008a013567ffffffffffffffff811115612e6557612e646127ba565b5b612e718c828d01612a33565b995099505060208a013567ffffffffffffffff811115612e9457612e936127ba565b5b612ea08c828d01612a33565b97509750506040612eb38c828d016127d6565b95505060608a013567ffffffffffffffff811115612ed457612ed36127ba565b5b612ee08c828d01612a33565b945094505060808a013567ffffffffffffffff811115612f0357612f026127ba565b5b612f0f8c828d01612b8b565b92505060a0612f208c828d01612916565b9150509295985092959850929598565b600061ffff82169050919050565b612f4781612f30565b8114612f5257600080fd5b50565b600081359050612f6481612f3e565b92915050565b60008060408385031215612f8157612f806127b5565b5b6000612f8f85828601612f55565b9250506020612fa085828601612f55565b9150509250929050565b60008060408385031215612fc157612fc06127b5565b5b6000612fcf858286016127d6565b9250506020612fe0858286016127d6565b9150509250929050565b612ff381612628565b82525050565b600060208201905061300e6000830184612fea565b92915050565b61301d816125ef565b82525050565b60006020820190506130386000830184613014565b92915050565b600060e0820190508181036000830152613058818a61251e565b90506130676020830189613014565b6130746040830188613014565b8181036060830152613086818761251e565b90506130956080830186613014565b81810360a08301526130a7818561251e565b90506130b660c0830184612fea565b98975050505050505050565b7f4e487b7100000000000000000000000000000000000000000000000000000000600052601160045260246000fd5b60006130fc82612f30565b915061310783612f30565b92508282101561311a576131196130c2565b5b828203905092915050565b7f4e487b7100000000000000000000000000000000000000000000000000000000600052602260045260246000fd5b6000600282049050600182168061316c57607f821691505b602082108114156131805761317f613125565b5b50919050565b7f4e487b7100000000000000000000000000000000000000000000000000000000600052603260045260246000fd5b60006131c082612f30565b915061ffff8214156131d5576131d46130c2565b5b600182019050919050565b7f596f75206861766520616c726561647920726567697374726174656400000000600082015250565b6000613216601c836124c9565b9150613221826131e0565b602082019050919050565b6000602082019050818103600083015261324581613209565b9050919050565b7f596f7520617265206e6f7420656c696762696c6520746f20766f746500000000600082015250565b6000613282601c836124c9565b915061328d8261324c565b602082019050919050565b600060208201905081810360008301526132b181613275565b9050919050565b60006132c3826125ef565b91506132ce836125ef565b9250828210156132e1576132e06130c2565b5b828203905092915050565b60006132f7826125ef565b91507fffffffffffffffffffffffffffffffffffffffffffffffffffffffffffffffff82141561332a576133296130c2565b5b600182019050919050565b7f596f75206172652066726f6d20656c656374696f6e20636f6d6d6973696f6e00600082015250565b600061336b601f836124c9565b915061337682613335565b602082019050919050565b6000602082019050818103600083015261339a8161335e565b9050919050565b7f596f75206861766520616c726561647920726567697374657265640000000000600082015250565b60006133d7601b836124c9565b91506133e2826133a1565b602082019050919050565b60006020820190508181036000830152613406816133ca565b9050919050565b7f596f752072652062656c6f772031380000000000000000000000000000000000600082015250565b6000613443600f836124c9565b915061344e8261340d565b602082019050919050565b6000602082019050818103600083015261347281613436565b9050919050565b7f526567697374726174696f6e2066756c6c000000000000000000000000000000600082015250565b60006134af6011836124c9565b91506134ba82613479565b602082019050919050565b600060208201905081810360008301526134de816134a2565b9050919050565b7f566f74696e67206973206f766572000000000000000000000000000000000000600082015250565b600061351b600e836124c9565b9150613526826134e5565b602082019050919050565b6000602082019050818103600083015261354a8161350e565b9050919050565b7f596f75206861766520616c726561647920766f74656400000000000000000000600082015250565b60006135876016836124c9565b915061359282613551565b602082019050919050565b600060208201905081810360008301526135b68161357a565b9050919050565b7f596f7520617265206e6f74207265676973746572656400000000000000000000600082015250565b60006135f36016836124c9565b91506135fe826135bd565b602082019050919050565b60006020820190508181036000830152613622816135e6565b9050919050565b7f566f74696e6720686173206e6f74207374617274656400000000000000000000600082015250565b600061365f6016836124c9565b915061366a82613629565b602082019050919050565b6000602082019050818103600083015261368e81613652565b9050919050565b7f566f74696e672068617320656e64656400000000000000000000000000000000600082015250565b60006136cb6010836124c9565b91506136d682613695565b602082019050919050565b600060208201905081810360008301526136fa816136be565b9050919050565b7f43616e696461746520726567697374726174696f6e206973206e6f7420646f6e60008201527f6520796574000000000000000000000000000000000000000000000000000000602082015250565b600061375d6025836124c9565b915061376882613701565b604082019050919050565b6000602082019050818103600083015261378c81613750565b9050919050565b7f43616e64696461746520646f6573206e6f742065786973740000000000000000600082015250565b60006137c96018836124c9565b91506137d482613793565b602082019050919050565b600060208201905081810360008301526137f8816137bc565b9050919050565b7f596f7520617265206e6f742066726f6d20656c656374696f6e20636f6d6d697360008201527f696f6e0000000000000000000000000000000000000000000000000000000000602082015250565b600061385b6023836124c9565b9150613866826137ff565b604082019050919050565b6000602082019050818103600083015261388a8161384e565b9050919050565b600061389c826125ef565b91506138a7836125ef565b9250827fffffffffffffffffffffffffffffffffffffffffffffffffffffffffffffffff038211156138dc576138db6130c2565b5b828201905092915050565b600081905092915050565b60006138fd826124be565b61390781856138e7565b93506139178185602086016124da565b80840191505092915050565b600061392f82846138f2565b915081905092915050565b60008190508160005260206000209050919050565b6000815461395c81613154565b61396681866138e7565b945060018216600081146139815760018114613992576139c5565b60ff198316865281860193506139c5565b61399b8561393a565b60005b838110156139bd5781548189015260018201915060208101905061399e565b838801955050505b50505092915050565b60006139da828461394f565b91508190509291505056fe566f74696e67204e6f7420537461727465642c20476f20726567697374657220596f757273656c66a2646970667358221220217bf587423432d790683c09d5133226d06e2ae1cffc91ed45834ede27d76aee64736f6c63430008090033",
  "immutableReferences": {},
  "source": "// SPDX-License-Identifier: MIT\r\n\r\npragma solidity >=0.4.22 <0.9.0;\r\n\r\ncontract Vote {\r\n    address public electionCommision;\r\n\r\n    address public winner;\r\n    uint public winnerid;\r\n    uint256 winvotes;\r\n\r\n    struct Voter {\r\n        string name;\r\n        uint256 age;\r\n        uint256 voterId;\r\n        string gender;\r\n        uint256 voteCandidateId;\r\n        string aadhar;\r\n        address voterAddress;\r\n    }\r\n\r\n    struct Candidate {\r\n        string name;\r\n        string party;\r\n        uint256 age;\r\n        string gender;\r\n        uint256 candidateId;\r\n        string aadhar;\r\n        address candidateAddress;\r\n        uint256 votes;\r\n    }\r\n\r\n    uint16 nextVoterId = 1;\r\n\r\n    uint256 nextCandidateId = 1;\r\n\r\n    uint256 startTime;\r\n\r\n    uint256 endTime;\r\n\r\n    mapping(uint256 => Voter) voterDetails;\r\n\r\n    mapping(address => Voter) public Boter;\r\n\r\n    mapping(uint256 => Candidate) candidateDetails;\r\n\r\n    bool stopVoting; //electionCommision\r\n\r\n    constructor() {\r\n        electionCommision = msg.sender; //varaible global\r\n    }\r\n\r\n    function candidateRegister(\r\n        string calldata _name,\r\n        string calldata _party,\r\n        uint256 _age,\r\n        string calldata _gender,\r\n        string memory _aadhar,\r\n        address caddress\r\n    ) external {\r\n        require(\r\n            msg.sender != electionCommision,\r\n            \"You are from election commision\"\r\n        );\r\n\r\n        require(\r\n            candidateVerification(msg.sender, _aadhar),\r\n            \"You have already registered\"\r\n        );\r\n\r\n        require(_age >= 18, \"You re below 18\");\r\n\r\n        require(nextCandidateId < 10, \"Registration full\");\r\n\r\n        candidateDetails[nextCandidateId] = Candidate(\r\n            _name,\r\n            _party,\r\n            _age,\r\n            _gender,\r\n            nextCandidateId,\r\n            _aadhar,\r\n            caddress,\r\n            0\r\n        );\r\n\r\n        nextCandidateId++;\r\n    }\r\n\r\n    function candidateVerification(\r\n        address _person,\r\n        string memory _aadhar\r\n    ) internal view returns (bool) {\r\n        for (uint256 i = 1; i < nextCandidateId; i++) {\r\n            if (\r\n                candidateDetails[i].candidateAddress == _person ||\r\n                keccak256(abi.encodePacked(candidateDetails[i].aadhar)) ==\r\n                keccak256(abi.encodePacked(_aadhar))\r\n            ) {\r\n                return false;\r\n            }\r\n        }\r\n\r\n        return true;\r\n    }\r\n\r\n    function candidateList() public view returns (Candidate[] memory) {\r\n        Candidate[] memory arr = new Candidate[](nextCandidateId - 1);\r\n        //empty array,length=nextCandidateId-1\r\n\r\n        for (uint256 i = 1; i < nextCandidateId; i++) {\r\n            arr[i - 1] = candidateDetails[i];\r\n        }\r\n\r\n        return arr;\r\n    }\r\n\r\n    function voterRegister(\r\n        string calldata _name,\r\n        uint256 _age,\r\n        string calldata _gender,\r\n        string memory _aadhar\r\n    ) external {\r\n        require(\r\n            voterVerification(msg.sender, _aadhar),\r\n            \"You have already registrated\"\r\n        );\r\n\r\n        require(_age >= 18, \"You are not eligbile to vote\");\r\n\r\n        voterDetails[nextVoterId] = Voter(\r\n            _name,\r\n            _age,\r\n            nextVoterId,\r\n            _gender,\r\n            0,\r\n            _aadhar,\r\n            msg.sender\r\n        );\r\n\r\n        Boter[msg.sender] = voterDetails[nextVoterId];\r\n\r\n        nextVoterId++;\r\n    }\r\n\r\n    function voterVerification(\r\n        address _user,\r\n        string memory _aadhar\r\n    ) internal view returns (bool) {\r\n        for (uint16 i = 1; i < nextVoterId; i++) {\r\n            if (\r\n                voterDetails[i].voterAddress == _user ||\r\n                keccak256(abi.encodePacked(voterDetails[i].aadhar)) ==\r\n                keccak256(abi.encodePacked(_aadhar))\r\n            ) {\r\n                return false;\r\n            }\r\n        }\r\n\r\n        return true;\r\n    }\r\n\r\n    function voterList() public view returns (Voter[] memory) {\r\n        Voter[] memory arr = new Voter[](nextVoterId - 1);\r\n\r\n        for (uint16 i = 1; i < nextVoterId; i++) {\r\n            arr[i - 1] = voterDetails[i];\r\n        }\r\n\r\n        return arr;\r\n    }\r\n\r\n    function returnId(address p) public view returns (Voter memory) {\r\n        return Boter[p];\r\n    }\r\n\r\n    function returncId(uint i) public view returns (Candidate memory) {\r\n        return candidateDetails[i];\r\n    }\r\n\r\n    function vote(uint16 _voterId, uint16 _id) external isVotingOver {\r\n        require(\r\n            voterDetails[_voterId].voteCandidateId == 0,\r\n            \"You have already voted\"\r\n        );\r\n\r\n        require(\r\n            voterDetails[_voterId].voterAddress == msg.sender,\r\n            \"You are not registered\"\r\n        );\r\n\r\n        require(block.timestamp > startTime, \"Voting has not started\");\r\n\r\n        require(block.timestamp < endTime, \"Voting has ended\");\r\n\r\n        require(nextCandidateId > 2, \"Canidate registration is not done yet\");\r\n\r\n        require(_id > 0 && _id < 10, \"Candidate does not exist\");\r\n\r\n        voterDetails[_voterId].voteCandidateId = _id;\r\n        Boter[voterDetails[_voterId].voterAddress].voteCandidateId = _id;\r\n\r\n        candidateDetails[_id].votes++;\r\n    }\r\n\r\n    function voteTime(uint256 _startTime, uint256 _endTime) external {\r\n        require(\r\n            electionCommision == msg.sender,\r\n            \"You are not from election commision\"\r\n        );\r\n\r\n        startTime = block.timestamp + _startTime; //5pm+5 minutes = 5:05 minutes\r\n\r\n        endTime = startTime + _endTime; //5:05+20 minute= 5:25 minutes\r\n\r\n        stopVoting = false;\r\n    }\r\n\r\n    //5:26\r\n\r\n    function votingStatus() external view returns (string memory) {\r\n        if (startTime == 0) {\r\n            return \"Voting Not Started, Go register Yourself\";\r\n        }\r\n        // else if ((startTime != 0 && startTime >= block.timestamp) && stopVoting == false)\r\n        //     {\r\n        //             return \"Voting going to start Soon, Go register Yourself\";\r\n        //     }\r\n        else if (\r\n            (startTime != 0 && endTime > block.timestamp) && stopVoting == false\r\n        ) {\r\n            return \"Voting in progress\";\r\n        } else {\r\n            return \"Voting Ended\";\r\n        }\r\n    }\r\n\r\n    function result() external {\r\n        require(\r\n            electionCommision == msg.sender,\r\n            \"You are not from election commision\"\r\n        );\r\n\r\n        Candidate[] memory arr = new Candidate[](nextCandidateId - 1);\r\n\r\n        arr = candidateList();\r\n        for (uint i = 0; i < nextCandidateId - 1; i++) {\r\n            if (arr[i].votes >= winvotes) {\r\n                winner = arr[i].candidateAddress;\r\n                winnerid = arr[i].candidateId;\r\n                winvotes = arr[i].votes;\r\n            }\r\n        }\r\n\r\n        stopVoting = true;\r\n    }\r\n\r\n    function emergency() public {\r\n        require(\r\n            electionCommision == msg.sender,\r\n            \"You are not from election commision\"\r\n        );\r\n\r\n        stopVoting = true;\r\n    }\r\n\r\n    modifier isVotingOver() {\r\n        require(endTime > block.timestamp || stopVoting, \"Voting is over\");\r\n\r\n        _;\r\n    }\r\n}\r\n",
  "sourcePath": "C:\\Users\\LENOVO\\Desktop\\vote\\contracts\\Vote.sol",
  "compiler": {
    "name": "solc",
    "version": "0.8.9+commit.e5eed63a.Emscripten.clang"
  },
  "schemaVersion": "3.4.4",
  "updatedAt": "2023-06-09T07:11:26.123Z",
  "networkType": "ethereum",
  "devdoc": {
    "kind": "dev",
    "methods": {},
    "version": 1
  },
  "userdoc": {
    "kind": "user",
    "methods": {},
    "version": 1
  }
}