{
  "contractName": "demo",
  "abi": [
    {
      "inputs": [],
      "stateMutability": "nonpayable",
      "type": "constructor"
    },
    {
      "inputs": [],
      "name": "cont",
      "outputs": [
        {
          "internalType": "uint256",
          "name": "",
          "type": "uint256"
        }
      ],
      "stateMutability": "view",
      "type": "function"
    },
    {
      "inputs": [],
      "name": "extra",
      "outputs": [
        {
          "internalType": "uint256",
          "name": "",
          "type": "uint256"
        }
      ],
      "stateMutability": "view",
      "type": "function"
    },
    {
      "inputs": [],
      "name": "manager",
      "outputs": [
        {
          "internalType": "address",
          "name": "",
          "type": "address"
        }
      ],
      "stateMutability": "view",
      "type": "function"
    },
    {
      "inputs": [],
      "name": "numRequests",
      "outputs": [
        {
          "internalType": "uint256",
          "name": "",
          "type": "uint256"
        }
      ],
      "stateMutability": "view",
      "type": "function"
    },
    {
      "inputs": [
        {
          "internalType": "uint256",
          "name": "",
          "type": "uint256"
        }
      ],
      "name": "requests",
      "outputs": [
        {
          "internalType": "string",
          "name": "category",
          "type": "string"
        },
        {
          "internalType": "string",
          "name": "description",
          "type": "string"
        },
        {
          "internalType": "address payable",
          "name": "recipient",
          "type": "address"
        },
        {
          "internalType": "uint256",
          "name": "deadline",
          "type": "uint256"
        },
        {
          "internalType": "uint256",
          "name": "target",
          "type": "uint256"
        },
        {
          "internalType": "uint256",
          "name": "raisedAmount",
          "type": "uint256"
        },
        {
          "internalType": "bool",
          "name": "completed",
          "type": "bool"
        },
        {
          "internalType": "uint256",
          "name": "noOfDonors",
          "type": "uint256"
        }
      ],
      "stateMutability": "view",
      "type": "function"
    },
    {
      "stateMutability": "payable",
      "type": "receive"
    },
    {
      "inputs": [
        {
          "internalType": "uint256",
          "name": "i",
          "type": "uint256"
        }
      ],
      "name": "sendEth",
      "outputs": [],
      "stateMutability": "payable",
      "type": "function"
    },
    {
      "inputs": [],
      "name": "getContractBalance",
      "outputs": [
        {
          "internalType": "uint256",
          "name": "",
          "type": "uint256"
        }
      ],
      "stateMutability": "view",
      "type": "function"
    },
    {
      "inputs": [
        {
          "internalType": "string",
          "name": "cate",
          "type": "string"
        },
        {
          "internalType": "string",
          "name": "_description",
          "type": "string"
        },
        {
          "internalType": "address payable",
          "name": "_recipient",
          "type": "address"
        },
        {
          "internalType": "uint256",
          "name": "_time",
          "type": "uint256"
        },
        {
          "internalType": "uint256",
          "name": "_target",
          "type": "uint256"
        }
      ],
      "name": "createRequests",
      "outputs": [],
      "stateMutability": "nonpayable",
      "type": "function"
    },
    {
      "inputs": [
        {
          "internalType": "uint256",
          "name": "id",
          "type": "uint256"
        }
      ],
      "name": "getRequest",
      "outputs": [
        {
          "internalType": "string",
          "name": "",
          "type": "string"
        }
      ],
      "stateMutability": "view",
      "type": "function"
    },
    {
      "inputs": [],
      "name": "getRequestNo",
      "outputs": [
        {
          "internalType": "uint256",
          "name": "",
          "type": "uint256"
        }
      ],
      "stateMutability": "view",
      "type": "function"
    },
    {
      "inputs": [
        {
          "internalType": "uint256",
          "name": "i",
          "type": "uint256"
        }
      ],
      "name": "makePayment",
      "outputs": [],
      "stateMutability": "payable",
      "type": "function"
    }
  ],
  "bytecode": "0x608060405234801561001057600080fd5b5033600260006101000a81548173ffffffffffffffffffffffffffffffffffffffff021916908373ffffffffffffffffffffffffffffffffffffffff16021790555061156f806100616000396000f3fe6080604052600436106100a05760003560e01c80636582b651116100645780636582b651146101725780636f9fb98a1461019d57806381d12c58146101c85780639fb42b1f1461020c578063c58343ef14610237578063cfc5484814610274576100a7565b8063079ce1ab146100ac578063190024e0146100d7578063481c6a75146101025780635114cb521461012d578063566b978614610149576100a7565b366100a757005b600080fd5b3480156100b857600080fd5b506100c1610290565b6040516100ce9190610d19565b60405180910390f35b3480156100e357600080fd5b506100ec610296565b6040516100f99190610d19565b60405180910390f35b34801561010e57600080fd5b5061011761029c565b6040516101249190610d75565b60405180910390f35b61014760048036038101906101429190610dd0565b6102c2565b005b34801561015557600080fd5b50610170600480360381019061016b9190610f81565b6104c0565b005b34801561017e57600080fd5b5061018761064c565b6040516101949190610d19565b60405180910390f35b3480156101a957600080fd5b506101b2610656565b6040516101bf9190610d19565b60405180910390f35b3480156101d457600080fd5b506101ef60048036038101906101ea9190610dd0565b6106ee565b6040516102039897969594939291906110e6565b60405180910390f35b34801561021857600080fd5b50610221610873565b60405161022e9190610d19565b60405180910390f35b34801561024357600080fd5b5061025e60048036038101906102599190610dd0565b610879565b60405161026b9190611172565b60405180910390f35b61028e60048036038101906102899190610dd0565b610927565b005b60015481565b60035481565b600260009054906101000a900473ffffffffffffffffffffffffffffffffffffffff1681565b600260009054906101000a900473ffffffffffffffffffffffffffffffffffffffff1673ffffffffffffffffffffffffffffffffffffffff163373ffffffffffffffffffffffffffffffffffffffff1614610352576040517f08c379a000000000000000000000000000000000000000000000000000000000815260040161034990611206565b60405180910390fd5b6004600082815260200190815260200160002060040154600460008381526020019081526020016000206005015410156103c1576040517f08c379a00000000000000000000000000000000000000000000000000000000081526004016103b890611272565b60405180910390fd5b6000600460008381526020019081526020016000209050600015158160060160009054906101000a900460ff16151514610430576040517f08c379a0000000000000000000000000000000000000000000000000000000008152600401610427906112de565b60405180910390fd5b8060020160009054906101000a900473ffffffffffffffffffffffffffffffffffffffff1673ffffffffffffffffffffffffffffffffffffffff166108fc82600401549081150290604051600060405180830381858888f1935050505015801561049e573d6000803e3d6000fd5b5060018160060160006101000a81548160ff0219169083151502179055505050565b600260009054906101000a900473ffffffffffffffffffffffffffffffffffffffff1673ffffffffffffffffffffffffffffffffffffffff163373ffffffffffffffffffffffffffffffffffffffff1614610550576040517f08c379a000000000000000000000000000000000000000000000000000000000815260040161054790611206565b60405180910390fd5b600060046000600654815260200190815260200160002090506006600081548092919061057c9061132d565b919050555085816000019080519060200190610599929190610c5d565b50848160010190805190602001906105b2929190610c5d565b50838160020160006101000a81548173ffffffffffffffffffffffffffffffffffffffff021916908373ffffffffffffffffffffffffffffffffffffffff16021790555082426106029190611376565b81600301819055508181600401819055506000816005018190555060008160060160006101000a81548160ff02191690831515021790555060008160070181905550505050505050565b6000600654905090565b6000600260009054906101000a900473ffffffffffffffffffffffffffffffffffffffff1673ffffffffffffffffffffffffffffffffffffffff163373ffffffffffffffffffffffffffffffffffffffff16146106e8576040517f08c379a00000000000000000000000000000000000000000000000000000000081526004016106df90611206565b60405180910390fd5b47905090565b6004602052806000526040600020600091509050806000018054610711906113fb565b80601f016020809104026020016040519081016040528092919081815260200182805461073d906113fb565b801561078a5780601f1061075f5761010080835404028352916020019161078a565b820191906000526020600020905b81548152906001019060200180831161076d57829003601f168201915b50505050509080600101805461079f906113fb565b80601f01602080910402602001604051908101604052809291908181526020018280546107cb906113fb565b80156108185780601f106107ed57610100808354040283529160200191610818565b820191906000526020600020905b8154815290600101906020018083116107fb57829003601f168201915b5050505050908060020160009054906101000a900473ffffffffffffffffffffffffffffffffffffffff16908060030154908060040154908060050154908060060160009054906101000a900460ff16908060070154905088565b60065481565b606060006004600084815260200190815260200160002090508060000180546108a1906113fb565b80601f01602080910402602001604051908101604052809291908181526020018280546108cd906113fb565b801561091a5780601f106108ef5761010080835404028352916020019161091a565b820191906000526020600020905b8154815290600101906020018083116108fd57829003601f168201915b5050505050915050919050565b6004600082815260200190815260200160002060030154421061097f576040517f08c379a000000000000000000000000000000000000000000000000000000000815260040161097690611479565b60405180910390fd5b60046000828152602001908152602001600020600401546004600083815260200190815260200160002060050154106109ed576040517f08c379a00000000000000000000000000000000000000000000000000000000081526004016109e4906114e5565b60405180910390fd5b60006004600083815260200190815260200160002060080160003373ffffffffffffffffffffffffffffffffffffffff1673ffffffffffffffffffffffffffffffffffffffff168152602001908152602001600020541415610b3e57600460008281526020019081526020016000206007016000815480929190610a709061132d565b9190505550600015156000803373ffffffffffffffffffffffffffffffffffffffff1673ffffffffffffffffffffffffffffffffffffffff16815260200190815260200160002060009054906101000a900460ff1615151415610b3d5760016000803373ffffffffffffffffffffffffffffffffffffffff1673ffffffffffffffffffffffffffffffffffffffff16815260200190815260200160002060006101000a81548160ff02191690831515021790555060016000815480929190610b379061132d565b91905055505b5b346004600083815260200190815260200160002060080160003373ffffffffffffffffffffffffffffffffffffffff1673ffffffffffffffffffffffffffffffffffffffff1681526020019081526020016000206000828254610ba19190611376565b9250508190555034600460008381526020019081526020016000206005016000828254610bce9190611376565b92505081905550600460008281526020019081526020016000206004015460046000838152602001908152602001600020600501541115610c5a5760046000828152602001908152602001600020600401546004600083815260200190815260200160002060050154610c419190611505565b60036000828254610c529190611376565b925050819055505b50565b828054610c69906113fb565b90600052602060002090601f016020900481019282610c8b5760008555610cd2565b82601f10610ca457805160ff1916838001178555610cd2565b82800160010185558215610cd2579182015b82811115610cd1578251825591602001919060010190610cb6565b5b509050610cdf9190610ce3565b5090565b5b80821115610cfc576000816000905550600101610ce4565b5090565b6000819050919050565b610d1381610d00565b82525050565b6000602082019050610d2e6000830184610d0a565b92915050565b600073ffffffffffffffffffffffffffffffffffffffff82169050919050565b6000610d5f82610d34565b9050919050565b610d6f81610d54565b82525050565b6000602082019050610d8a6000830184610d66565b92915050565b6000604051905090565b600080fd5b600080fd5b610dad81610d00565b8114610db857600080fd5b50565b600081359050610dca81610da4565b92915050565b600060208284031215610de657610de5610d9a565b5b6000610df484828501610dbb565b91505092915050565b600080fd5b600080fd5b6000601f19601f8301169050919050565b7f4e487b7100000000000000000000000000000000000000000000000000000000600052604160045260246000fd5b610e5082610e07565b810181811067ffffffffffffffff82111715610e6f57610e6e610e18565b5b80604052505050565b6000610e82610d90565b9050610e8e8282610e47565b919050565b600067ffffffffffffffff821115610eae57610ead610e18565b5b610eb782610e07565b9050602081019050919050565b82818337600083830152505050565b6000610ee6610ee184610e93565b610e78565b905082815260208101848484011115610f0257610f01610e02565b5b610f0d848285610ec4565b509392505050565b600082601f830112610f2a57610f29610dfd565b5b8135610f3a848260208601610ed3565b91505092915050565b6000610f4e82610d34565b9050919050565b610f5e81610f43565b8114610f6957600080fd5b50565b600081359050610f7b81610f55565b92915050565b600080600080600060a08688031215610f9d57610f9c610d9a565b5b600086013567ffffffffffffffff811115610fbb57610fba610d9f565b5b610fc788828901610f15565b955050602086013567ffffffffffffffff811115610fe857610fe7610d9f565b5b610ff488828901610f15565b945050604061100588828901610f6c565b935050606061101688828901610dbb565b925050608061102788828901610dbb565b9150509295509295909350565b600081519050919050565b600082825260208201905092915050565b60005b8381101561106e578082015181840152602081019050611053565b8381111561107d576000848401525b50505050565b600061108e82611034565b611098818561103f565b93506110a8818560208601611050565b6110b181610e07565b840191505092915050565b6110c581610f43565b82525050565b60008115159050919050565b6110e0816110cb565b82525050565b6000610100820190508181036000830152611101818b611083565b90508181036020830152611115818a611083565b905061112460408301896110bc565b6111316060830188610d0a565b61113e6080830187610d0a565b61114b60a0830186610d0a565b61115860c08301856110d7565b61116560e0830184610d0a565b9998505050505050505050565b6000602082019050818103600083015261118c8184611083565b905092915050565b7f4f6e6c79206d616e616765722063616e2063616c6c6c20746869732066756e6360008201527f74696f6e00000000000000000000000000000000000000000000000000000000602082015250565b60006111f060248361103f565b91506111fb82611194565b604082019050919050565b6000602082019050818103600083015261121f816111e3565b9050919050565b7f546172676574206e6f7420416368656976656420596574000000000000000000600082015250565b600061125c60178361103f565b915061126782611226565b602082019050919050565b6000602082019050818103600083015261128b8161124f565b9050919050565b7f546865207265717565737420686173206265656e20636f6d706c657465640000600082015250565b60006112c8601e8361103f565b91506112d382611292565b602082019050919050565b600060208201905081810360008301526112f7816112bb565b9050919050565b7f4e487b7100000000000000000000000000000000000000000000000000000000600052601160045260246000fd5b600061133882610d00565b91507fffffffffffffffffffffffffffffffffffffffffffffffffffffffffffffffff82141561136b5761136a6112fe565b5b600182019050919050565b600061138182610d00565b915061138c83610d00565b9250827fffffffffffffffffffffffffffffffffffffffffffffffffffffffffffffffff038211156113c1576113c06112fe565b5b828201905092915050565b7f4e487b7100000000000000000000000000000000000000000000000000000000600052602260045260246000fd5b6000600282049050600182168061141357607f821691505b60208210811415611427576114266113cc565b5b50919050565b7f646561646c696e65207061737365640000000000000000000000000000000000600082015250565b6000611463600f8361103f565b915061146e8261142d565b602082019050919050565b6000602082019050818103600083015261149281611456565b9050919050565b7f7461726765742041636869657665640000000000000000000000000000000000600082015250565b60006114cf600f8361103f565b91506114da82611499565b602082019050919050565b600060208201905081810360008301526114fe816114c2565b9050919050565b600061151082610d00565b915061151b83610d00565b92508282101561152e5761152d6112fe565b5b82820390509291505056fea2646970667358221220ce349b70882597bd05025895db10f9f1915fc62d0fc8e72d717dbc341ec6aaac64736f6c63430008090033",
  "immutableReferences": {},
  "source": "// SPDX-License-Identifier: MIT\r\npragma solidity >=0.4.22 <0.9.0;\r\ncontract demo{\r\n    mapping(address=>bool) contributors; \r\n    uint public cont;\r\n    address public manager;\r\n    uint public extra; \r\n    struct Request{\r\n        string category;\r\n        string description;\r\n        address payable recipient;\r\n        uint deadline;\r\n        uint target;\r\n        uint raisedAmount;\r\n        bool completed;\r\n        uint noOfDonors;\r\n        mapping(address=>uint) donors;\r\n    }\r\n    mapping(uint=>Request) public requests;\r\n    Request [] res;\r\n    \r\n    uint public numRequests;\r\n    constructor(){\r\n        manager=msg.sender;\r\n    }\r\n    receive() external payable{}\r\n\r\n    function sendEth(uint i) public payable{\r\n         require(block.timestamp<requests[i].deadline,\"deadline passed\");\r\n         require(requests[i].raisedAmount<requests[i].target,\"target Achieved\");\r\n        if(requests[i].donors[msg.sender]==0){\r\n            requests[i].noOfDonors++;\r\n            if(contributors[msg.sender]==false)\r\n            {\r\n                contributors[msg.sender]=true;\r\n                cont++;\r\n            }\r\n        }\r\n            requests[i].donors[msg.sender]+=msg.value;\r\n            requests[i].raisedAmount+=msg.value;\r\n\r\n            if(requests[i].raisedAmount>requests[i].target){\r\n                extra+=(requests[i].raisedAmount-requests[i].target);\r\n               \r\n\r\n            }\r\n    }\r\n    modifier onlyManger(){\r\n        require(msg.sender==manager,\"Only manager can calll this function\");\r\n        _;\r\n    }\r\n\r\n    function getContractBalance() public view onlyManger returns(uint) {\r\n        return address(this).balance;\r\n    }\r\n\r\n    function createRequests(string memory cate,string memory _description,address payable _recipient,uint _time,uint _target) public onlyManger{\r\n        Request storage newRequest=requests[numRequests];\r\n        numRequests++;\r\n        newRequest.category=cate;\r\n        newRequest.description=_description;\r\n        newRequest.recipient=_recipient;\r\n        newRequest.deadline=block.timestamp+_time; \r\n        newRequest.target=_target;\r\n        newRequest.raisedAmount=0;\r\n        newRequest.completed=false;\r\n        newRequest.noOfDonors=0; \r\n    }\r\n    function getRequest(uint id) public view returns (string memory)\r\n   {   \r\n        Request storage p = requests[id];\r\n        return p.category;\r\n        \r\n    }\r\n    function getRequestNo() public view returns(uint)\r\n    {\r\n        return numRequests;\r\n    }\r\n\r\n    function makePayment(uint i) public payable onlyManger{\r\n        require(requests[i].raisedAmount>=requests[i].target,\"Target not Acheived Yet\");\r\n        Request storage thisRequest=requests[i];\r\n        require(thisRequest.completed==false,\"The request has been completed\");\r\n        thisRequest.recipient.transfer(thisRequest.target);\r\n        thisRequest.completed=true;\r\n    }\r\n\r\n}",
  "sourcePath": "C:\\Users\\LENOVO\\Desktop\\Fund\\contracts\\funder.sol",
  "compiler": {
    "name": "solc",
    "version": "0.8.9+commit.e5eed63a.Emscripten.clang"
  },
  "schemaVersion": "3.4.4",
  "updatedAt": "2022-02-20T08:07:51.298Z",
  "devdoc": {
    "kind": "dev",
    "methods": {},
    "version": 1
  },
  "userdoc": {
    "kind": "user",
    "methods": {},
    "version": 1
  }
}